{
  "contractName": "ERC721Pausable",
  "abi": [
    {
      "constant": true,
      "inputs": [
        {
          "name": "interfaceId",
          "type": "bytes4"
        }
      ],
      "name": "supportsInterface",
      "outputs": [
        {
          "name": "",
          "type": "bool"
        }
      ],
      "payable": false,
      "stateMutability": "view",
      "type": "function"
    },
    {
      "constant": true,
      "inputs": [
        {
          "name": "tokenId",
          "type": "uint256"
        }
      ],
      "name": "getApproved",
      "outputs": [
        {
          "name": "",
          "type": "address"
        }
      ],
      "payable": false,
      "stateMutability": "view",
      "type": "function"
    },
    {
      "constant": false,
      "inputs": [
        {
          "name": "from",
          "type": "address"
        },
        {
          "name": "to",
          "type": "address"
        },
        {
          "name": "tokenId",
          "type": "uint256"
        }
      ],
      "name": "transferFrom",
      "outputs": [],
      "payable": false,
      "stateMutability": "nonpayable",
      "type": "function"
    },
    {
      "constant": false,
      "inputs": [],
      "name": "unpause",
      "outputs": [],
      "payable": false,
      "stateMutability": "nonpayable",
      "type": "function"
    },
    {
      "constant": false,
      "inputs": [
        {
          "name": "from",
          "type": "address"
        },
        {
          "name": "to",
          "type": "address"
        },
        {
          "name": "tokenId",
          "type": "uint256"
        }
      ],
      "name": "safeTransferFrom",
      "outputs": [],
      "payable": false,
      "stateMutability": "nonpayable",
      "type": "function"
    },
    {
      "constant": true,
      "inputs": [
        {
          "name": "account",
          "type": "address"
        }
      ],
      "name": "isPauser",
      "outputs": [
        {
          "name": "",
          "type": "bool"
        }
      ],
      "payable": false,
      "stateMutability": "view",
      "type": "function"
    },
    {
      "constant": true,
      "inputs": [],
      "name": "paused",
      "outputs": [
        {
          "name": "",
          "type": "bool"
        }
      ],
      "payable": false,
      "stateMutability": "view",
      "type": "function"
    },
    {
      "constant": true,
      "inputs": [
        {
          "name": "tokenId",
          "type": "uint256"
        }
      ],
      "name": "ownerOf",
      "outputs": [
        {
          "name": "",
          "type": "address"
        }
      ],
      "payable": false,
      "stateMutability": "view",
      "type": "function"
    },
    {
      "constant": false,
      "inputs": [],
      "name": "renouncePauser",
      "outputs": [],
      "payable": false,
      "stateMutability": "nonpayable",
      "type": "function"
    },
    {
      "constant": true,
      "inputs": [
        {
          "name": "owner",
          "type": "address"
        }
      ],
      "name": "balanceOf",
      "outputs": [
        {
          "name": "",
          "type": "uint256"
        }
      ],
      "payable": false,
      "stateMutability": "view",
      "type": "function"
    },
    {
      "constant": false,
      "inputs": [
        {
          "name": "account",
          "type": "address"
        }
      ],
      "name": "addPauser",
      "outputs": [],
      "payable": false,
      "stateMutability": "nonpayable",
      "type": "function"
    },
    {
      "constant": false,
      "inputs": [],
      "name": "pause",
      "outputs": [],
      "payable": false,
      "stateMutability": "nonpayable",
      "type": "function"
    },
    {
      "constant": false,
      "inputs": [
        {
          "name": "from",
          "type": "address"
        },
        {
          "name": "to",
          "type": "address"
        },
        {
          "name": "tokenId",
          "type": "uint256"
        },
        {
          "name": "_data",
          "type": "bytes"
        }
      ],
      "name": "safeTransferFrom",
      "outputs": [],
      "payable": false,
      "stateMutability": "nonpayable",
      "type": "function"
    },
    {
      "constant": true,
      "inputs": [
        {
          "name": "owner",
          "type": "address"
        },
        {
          "name": "operator",
          "type": "address"
        }
      ],
      "name": "isApprovedForAll",
      "outputs": [
        {
          "name": "",
          "type": "bool"
        }
      ],
      "payable": false,
      "stateMutability": "view",
      "type": "function"
    },
    {
      "anonymous": false,
      "inputs": [
        {
          "indexed": false,
          "name": "account",
          "type": "address"
        }
      ],
      "name": "Paused",
      "type": "event"
    },
    {
      "anonymous": false,
      "inputs": [
        {
          "indexed": false,
          "name": "account",
          "type": "address"
        }
      ],
      "name": "Unpaused",
      "type": "event"
    },
    {
      "anonymous": false,
      "inputs": [
        {
          "indexed": true,
          "name": "account",
          "type": "address"
        }
      ],
      "name": "PauserAdded",
      "type": "event"
    },
    {
      "anonymous": false,
      "inputs": [
        {
          "indexed": true,
          "name": "account",
          "type": "address"
        }
      ],
      "name": "PauserRemoved",
      "type": "event"
    },
    {
      "anonymous": false,
      "inputs": [
        {
          "indexed": true,
          "name": "from",
          "type": "address"
        },
        {
          "indexed": true,
          "name": "to",
          "type": "address"
        },
        {
          "indexed": true,
          "name": "tokenId",
          "type": "uint256"
        }
      ],
      "name": "Transfer",
      "type": "event"
    },
    {
      "anonymous": false,
      "inputs": [
        {
          "indexed": true,
          "name": "owner",
          "type": "address"
        },
        {
          "indexed": true,
          "name": "approved",
          "type": "address"
        },
        {
          "indexed": true,
          "name": "tokenId",
          "type": "uint256"
        }
      ],
      "name": "Approval",
      "type": "event"
    },
    {
      "anonymous": false,
      "inputs": [
        {
          "indexed": true,
          "name": "owner",
          "type": "address"
        },
        {
          "indexed": true,
          "name": "operator",
          "type": "address"
        },
        {
          "indexed": false,
          "name": "approved",
          "type": "bool"
        }
      ],
      "name": "ApprovalForAll",
      "type": "event"
    },
    {
      "constant": false,
      "inputs": [],
      "name": "initialize",
      "outputs": [],
      "payable": false,
      "stateMutability": "nonpayable",
      "type": "function"
    },
    {
      "constant": false,
      "inputs": [
        {
          "name": "sender",
          "type": "address"
        }
      ],
      "name": "initialize",
      "outputs": [],
      "payable": false,
      "stateMutability": "nonpayable",
      "type": "function"
    },
    {
      "constant": false,
      "inputs": [
        {
          "name": "to",
          "type": "address"
        },
        {
          "name": "tokenId",
          "type": "uint256"
        }
      ],
      "name": "approve",
      "outputs": [],
      "payable": false,
      "stateMutability": "nonpayable",
      "type": "function"
    },
    {
      "constant": false,
      "inputs": [
        {
          "name": "to",
          "type": "address"
        },
        {
          "name": "approved",
          "type": "bool"
        }
      ],
      "name": "setApprovalForAll",
      "outputs": [],
      "payable": false,
      "stateMutability": "nonpayable",
      "type": "function"
    }
  ],
  "bytecode": "0x60806040526128e3806100136000396000f3fe608060405234801561001057600080fd5b50600436106101165760003560e01c80636ef8d66d116100a25780638456cb59116100715780638456cb59146104be578063a22cb465146104c8578063b88d4fde14610518578063c4d66de81461061d578063e985e9c51461066157610116565b80636ef8d66d1461040e57806370a08231146104185780638129fc1c1461047057806382dc1ec41461047a57610116565b80633f4ba83a116100e95780633f4ba83a146102aa57806342842e0e146102b457806346fbf68e146103225780635c975abb1461037e5780636352211e146103a057610116565b806301ffc9a71461011b578063081812fc14610180578063095ea7b3146101ee57806323b872dd1461023c575b600080fd5b6101666004803603602081101561013157600080fd5b8101908080357bffffffffffffffffffffffffffffffffffffffffffffffffffffffff191690602001909291905050506106dd565b604051808215151515815260200191505060405180910390f35b6101ac6004803603602081101561019657600080fd5b8101908080359060200190929190505050610745565b604051808273ffffffffffffffffffffffffffffffffffffffff1673ffffffffffffffffffffffffffffffffffffffff16815260200191505060405180910390f35b61023a6004803603604081101561020457600080fd5b81019080803573ffffffffffffffffffffffffffffffffffffffff169060200190929190803590602001909291905050506107e0565b005b6102a86004803603606081101561025257600080fd5b81019080803573ffffffffffffffffffffffffffffffffffffffff169060200190929190803573ffffffffffffffffffffffffffffffffffffffff16906020019092919080359060200190929190505050610871565b005b6102b26108e7565b005b610320600480360360608110156102ca57600080fd5b81019080803573ffffffffffffffffffffffffffffffffffffffff169060200190929190803573ffffffffffffffffffffffffffffffffffffffff16906020019092919080359060200190929190505050610a55565b005b6103646004803603602081101561033857600080fd5b81019080803573ffffffffffffffffffffffffffffffffffffffff169060200190929190505050610a75565b604051808215151515815260200191505060405180910390f35b610386610a92565b604051808215151515815260200191505060405180910390f35b6103cc600480360360208110156103b657600080fd5b8101908080359060200190929190505050610aa9565b604051808273ffffffffffffffffffffffffffffffffffffffff1673ffffffffffffffffffffffffffffffffffffffff16815260200191505060405180910390f35b610416610b71565b005b61045a6004803603602081101561042e57600080fd5b81019080803573ffffffffffffffffffffffffffffffffffffffff169060200190929190505050610b83565b6040518082815260200191505060405180910390f35b610478610c58565b005b6104bc6004803603602081101561049057600080fd5b81019080803573ffffffffffffffffffffffffffffffffffffffff169060200190929190505050610d6f565b005b6104c6610de0565b005b610516600480360360408110156104de57600080fd5b81019080803573ffffffffffffffffffffffffffffffffffffffff169060200190929190803515159060200190929190505050610f4f565b005b61061b6004803603608081101561052e57600080fd5b81019080803573ffffffffffffffffffffffffffffffffffffffff169060200190929190803573ffffffffffffffffffffffffffffffffffffffff169060200190929190803590602001909291908035906020019064010000000081111561059557600080fd5b8201836020820111156105a757600080fd5b803590602001918460018302840111640100000000831117156105c957600080fd5b91908080601f016020809104026020016040519081016040528093929190818152602001838380828437600081840152601f19601f820116905080830192505050505050509192919290505050610fe0565b005b61065f6004803603602081101561063357600080fd5b81019080803573ffffffffffffffffffffffffffffffffffffffff169060200190929190505050611058565b005b6106c36004803603604081101561067757600080fd5b81019080803573ffffffffffffffffffffffffffffffffffffffff169060200190929190803573ffffffffffffffffffffffffffffffffffffffff169060200190929190505050611172565b604051808215151515815260200191505060405180910390f35b600060336000837bffffffffffffffffffffffffffffffffffffffffffffffffffffffff19167bffffffffffffffffffffffffffffffffffffffffffffffffffffffff1916815260200190815260200160002060009054906101000a900460ff169050919050565b600061075082611206565b6107a5576040517f08c379a000000000000000000000000000000000000000000000000000000000815260040180806020018281038252602c8152602001806127c1602c913960400191505060405180910390fd5b6067600083815260200190815260200160002060009054906101000a900473ffffffffffffffffffffffffffffffffffffffff169050919050565b60cf60009054906101000a900460ff1615610863576040517f08c379a00000000000000000000000000000000000000000000000000000000081526004018080602001828103825260108152602001807f5061757361626c653a207061757365640000000000000000000000000000000081525060200191505060405180910390fd5b61086d8282611278565b5050565b61088261087c61145f565b82611467565b6108d7576040517f08c379a00000000000000000000000000000000000000000000000000000000081526004018080602001828103825260318152602001806128876031913960400191505060405180910390fd5b6108e283838361155b565b505050565b6108f76108f261145f565b610a75565b61094c576040517f08c379a00000000000000000000000000000000000000000000000000000000081526004018080602001828103825260308152602001806126956030913960400191505060405180910390fd5b60cf60009054906101000a900460ff166109ce576040517f08c379a00000000000000000000000000000000000000000000000000000000081526004018080602001828103825260148152602001807f5061757361626c653a206e6f742070617573656400000000000000000000000081525060200191505060405180910390fd5b600060cf60006101000a81548160ff0219169083151502179055507f5db9ee0a495bf2e6ff9c91a7834c1ba4fdd244a5e8aa4e537bd38aeae4b073aa610a1261145f565b604051808273ffffffffffffffffffffffffffffffffffffffff1673ffffffffffffffffffffffffffffffffffffffff16815260200191505060405180910390a1565b610a7083838360405180602001604052806000815250610fe0565b505050565b6000610a8b82609c6115ee90919063ffffffff16565b9050919050565b600060cf60009054906101000a900460ff16905090565b6000806066600084815260200190815260200160002060009054906101000a900473ffffffffffffffffffffffffffffffffffffffff169050600073ffffffffffffffffffffffffffffffffffffffff168173ffffffffffffffffffffffffffffffffffffffff161415610b68576040517f08c379a00000000000000000000000000000000000000000000000000000000081526004018080602001828103825260298152602001806127776029913960400191505060405180910390fd5b80915050919050565b610b81610b7c61145f565b6116cc565b565b60008073ffffffffffffffffffffffffffffffffffffffff168273ffffffffffffffffffffffffffffffffffffffff161415610c0a576040517f08c379a000000000000000000000000000000000000000000000000000000000815260040180806020018281038252602a81526020018061274d602a913960400191505060405180910390fd5b610c51606860008473ffffffffffffffffffffffffffffffffffffffff1673ffffffffffffffffffffffffffffffffffffffff168152602001908152602001600020611726565b9050919050565b600060019054906101000a900460ff1680610c775750610c76611734565b5b80610c8e57506000809054906101000a900460ff16155b610ce3576040517f08c379a000000000000000000000000000000000000000000000000000000000815260040180806020018281038252602e81526020018061280f602e913960400191505060405180910390fd5b60008060019054906101000a900460ff161590508015610d33576001600060016101000a81548160ff02191690831515021790555060016000806101000a81548160ff0219169083151502179055505b610d3b611745565b610d4b6380ac58cd60e01b611854565b8015610d6c5760008060016101000a81548160ff0219169083151502179055505b50565b610d7f610d7a61145f565b610a75565b610dd4576040517f08c379a00000000000000000000000000000000000000000000000000000000081526004018080602001828103825260308152602001806126956030913960400191505060405180910390fd5b610ddd8161195d565b50565b610df0610deb61145f565b610a75565b610e45576040517f08c379a00000000000000000000000000000000000000000000000000000000081526004018080602001828103825260308152602001806126956030913960400191505060405180910390fd5b60cf60009054906101000a900460ff1615610ec8576040517f08c379a00000000000000000000000000000000000000000000000000000000081526004018080602001828103825260108152602001807f5061757361626c653a207061757365640000000000000000000000000000000081525060200191505060405180910390fd5b600160cf60006101000a81548160ff0219169083151502179055507f62e78cea01bee320cd4e420270b5ea74000d11b0c9f74754ebdbfc544b05a258610f0c61145f565b604051808273ffffffffffffffffffffffffffffffffffffffff1673ffffffffffffffffffffffffffffffffffffffff16815260200191505060405180910390a1565b60cf60009054906101000a900460ff1615610fd2576040517f08c379a00000000000000000000000000000000000000000000000000000000081526004018080602001828103825260108152602001807f5061757361626c653a207061757365640000000000000000000000000000000081525060200191505060405180910390fd5b610fdc82826119b7565b5050565b610ff1610feb61145f565b83611467565b611046576040517f08c379a00000000000000000000000000000000000000000000000000000000081526004018080602001828103825260318152602001806128876031913960400191505060405180910390fd5b61105284848484611b6f565b50505050565b600060019054906101000a900460ff16806110775750611076611734565b5b8061108e57506000809054906101000a900460ff16155b6110e3576040517f08c379a000000000000000000000000000000000000000000000000000000000815260040180806020018281038252602e81526020018061280f602e913960400191505060405180910390fd5b60008060019054906101000a900460ff161590508015611133576001600060016101000a81548160ff02191690831515021790555060016000806101000a81548160ff0219169083151502179055505b61113b611be1565b61114457600080fd5b61114d82611bf8565b801561116e5760008060016101000a81548160ff0219169083151502179055505b5050565b6000606960008473ffffffffffffffffffffffffffffffffffffffff1673ffffffffffffffffffffffffffffffffffffffff16815260200190815260200160002060008373ffffffffffffffffffffffffffffffffffffffff1673ffffffffffffffffffffffffffffffffffffffff16815260200190815260200160002060009054906101000a900460ff16905092915050565b6000806066600084815260200190815260200160002060009054906101000a900473ffffffffffffffffffffffffffffffffffffffff169050600073ffffffffffffffffffffffffffffffffffffffff168173ffffffffffffffffffffffffffffffffffffffff161415915050919050565b600061128382610aa9565b90508073ffffffffffffffffffffffffffffffffffffffff168373ffffffffffffffffffffffffffffffffffffffff16141561130a576040517f08c379a00000000000000000000000000000000000000000000000000000000081526004018080602001828103825260218152602001806128666021913960400191505060405180910390fd5b8073ffffffffffffffffffffffffffffffffffffffff1661132961145f565b73ffffffffffffffffffffffffffffffffffffffff16148061135857506113578161135261145f565b611172565b5b6113ad576040517f08c379a00000000000000000000000000000000000000000000000000000000081526004018080602001828103825260388152602001806127156038913960400191505060405180910390fd5b826067600084815260200190815260200160002060006101000a81548173ffffffffffffffffffffffffffffffffffffffff021916908373ffffffffffffffffffffffffffffffffffffffff160217905550818373ffffffffffffffffffffffffffffffffffffffff168273ffffffffffffffffffffffffffffffffffffffff167f8c5be1e5ebec7d5bd14f71427d1e84f3dd0314c0f7b2291e5b200ac8c7c3b92560405160405180910390a4505050565b600033905090565b600061147282611206565b6114c7576040517f08c379a000000000000000000000000000000000000000000000000000000000815260040180806020018281038252602c8152602001806126e9602c913960400191505060405180910390fd5b60006114d283610aa9565b90508073ffffffffffffffffffffffffffffffffffffffff168473ffffffffffffffffffffffffffffffffffffffff16148061154157508373ffffffffffffffffffffffffffffffffffffffff1661152984610745565b73ffffffffffffffffffffffffffffffffffffffff16145b8061155257506115518185611172565b5b91505092915050565b60cf60009054906101000a900460ff16156115de576040517f08c379a00000000000000000000000000000000000000000000000000000000081526004018080602001828103825260108152602001807f5061757361626c653a207061757365640000000000000000000000000000000081525060200191505060405180910390fd5b6115e9838383611d1c565b505050565b60008073ffffffffffffffffffffffffffffffffffffffff168273ffffffffffffffffffffffffffffffffffffffff161415611675576040517f08c379a00000000000000000000000000000000000000000000000000000000081526004018080602001828103825260228152602001806127ed6022913960400191505060405180910390fd5b8260000160008373ffffffffffffffffffffffffffffffffffffffff1673ffffffffffffffffffffffffffffffffffffffff16815260200190815260200160002060009054906101000a900460ff16905092915050565b6116e081609c611f7790919063ffffffff16565b8073ffffffffffffffffffffffffffffffffffffffff167fcd265ebaf09df2871cc7bd4133404a235ba12eff2041bb89d9c714a2621c7c7e60405160405180910390a250565b600081600001549050919050565b600080303b90506000811491505090565b600060019054906101000a900460ff16806117645750611763611734565b5b8061177b57506000809054906101000a900460ff16155b6117d0576040517f08c379a000000000000000000000000000000000000000000000000000000000815260040180806020018281038252602e81526020018061280f602e913960400191505060405180910390fd5b60008060019054906101000a900460ff161590508015611820576001600060016101000a81548160ff02191690831515021790555060016000806101000a81548160ff0219169083151502179055505b6118306301ffc9a760e01b611854565b80156118515760008060016101000a81548160ff0219169083151502179055505b50565b63ffffffff60e01b817bffffffffffffffffffffffffffffffffffffffffffffffffffffffff191614156118f0576040517f08c379a000000000000000000000000000000000000000000000000000000000815260040180806020018281038252601c8152602001807f4552433136353a20696e76616c696420696e746572666163652069640000000081525060200191505060405180910390fd5b600160336000837bffffffffffffffffffffffffffffffffffffffffffffffffffffffff19167bffffffffffffffffffffffffffffffffffffffffffffffffffffffff1916815260200190815260200160002060006101000a81548160ff02191690831515021790555050565b61197181609c61203490919063ffffffff16565b8073ffffffffffffffffffffffffffffffffffffffff167f6719d08c1888103bea251a4ed56406bd0c3e69723c8a1686e017e7bbe159b6f860405160405180910390a250565b6119bf61145f565b73ffffffffffffffffffffffffffffffffffffffff168273ffffffffffffffffffffffffffffffffffffffff161415611a60576040517f08c379a00000000000000000000000000000000000000000000000000000000081526004018080602001828103825260198152602001807f4552433732313a20617070726f766520746f2063616c6c65720000000000000081525060200191505060405180910390fd5b8060696000611a6d61145f565b73ffffffffffffffffffffffffffffffffffffffff1673ffffffffffffffffffffffffffffffffffffffff16815260200190815260200160002060008473ffffffffffffffffffffffffffffffffffffffff1673ffffffffffffffffffffffffffffffffffffffff16815260200190815260200160002060006101000a81548160ff0219169083151502179055508173ffffffffffffffffffffffffffffffffffffffff16611b1a61145f565b73ffffffffffffffffffffffffffffffffffffffff167f17307eab39ab6107e8899845ad3d59bd9653f200f220920489ca2b5937696c3183604051808215151515815260200191505060405180910390a35050565b611b7a84848461155b565b611b868484848461210f565b611bdb576040517f08c379a00000000000000000000000000000000000000000000000000000000081526004018080602001828103825260328152602001806126636032913960400191505060405180910390fd5b50505050565b6000611bf36380ac58cd60e01b6106dd565b905090565b600060019054906101000a900460ff1680611c175750611c16611734565b5b80611c2e57506000809054906101000a900460ff16155b611c83576040517f08c379a000000000000000000000000000000000000000000000000000000000815260040180806020018281038252602e81526020018061280f602e913960400191505060405180910390fd5b60008060019054906101000a900460ff161590508015611cd3576001600060016101000a81548160ff02191690831515021790555060016000806101000a81548160ff0219169083151502179055505b611cdc826122ff565b600060cf60006101000a81548160ff0219169083151502179055508015611d185760008060016101000a81548160ff0219169083151502179055505b5050565b8273ffffffffffffffffffffffffffffffffffffffff16611d3c82610aa9565b73ffffffffffffffffffffffffffffffffffffffff1614611da8576040517f08c379a000000000000000000000000000000000000000000000000000000000815260040180806020018281038252602981526020018061283d6029913960400191505060405180910390fd5b600073ffffffffffffffffffffffffffffffffffffffff168273ffffffffffffffffffffffffffffffffffffffff161415611e2e576040517f08c379a00000000000000000000000000000000000000000000000000000000081526004018080602001828103825260248152602001806126c56024913960400191505060405180910390fd5b611e3781612416565b611e7e606860008573ffffffffffffffffffffffffffffffffffffffff1673ffffffffffffffffffffffffffffffffffffffff1681526020019081526020016000206124d4565b611ec5606860008473ffffffffffffffffffffffffffffffffffffffff1673ffffffffffffffffffffffffffffffffffffffff1681526020019081526020016000206124f7565b816066600083815260200190815260200160002060006101000a81548173ffffffffffffffffffffffffffffffffffffffff021916908373ffffffffffffffffffffffffffffffffffffffff160217905550808273ffffffffffffffffffffffffffffffffffffffff168473ffffffffffffffffffffffffffffffffffffffff167fddf252ad1be2c89b69c2b068fc378daa952ba7f163c4a11628f55a4df523b3ef60405160405180910390a4505050565b611f8182826115ee565b611fd6576040517f08c379a00000000000000000000000000000000000000000000000000000000081526004018080602001828103825260218152602001806127a06021913960400191505060405180910390fd5b60008260000160008373ffffffffffffffffffffffffffffffffffffffff1673ffffffffffffffffffffffffffffffffffffffff16815260200190815260200160002060006101000a81548160ff0219169083151502179055505050565b61203e82826115ee565b156120b1576040517f08c379a000000000000000000000000000000000000000000000000000000000815260040180806020018281038252601f8152602001807f526f6c65733a206163636f756e7420616c72656164792068617320726f6c650081525060200191505060405180910390fd5b60018260000160008373ffffffffffffffffffffffffffffffffffffffff1673ffffffffffffffffffffffffffffffffffffffff16815260200190815260200160002060006101000a81548160ff0219169083151502179055505050565b60006121308473ffffffffffffffffffffffffffffffffffffffff1661250d565b61213d57600190506122f7565b60008473ffffffffffffffffffffffffffffffffffffffff1663150b7a0261216361145f565b8887876040518563ffffffff1660e01b8152600401808573ffffffffffffffffffffffffffffffffffffffff1673ffffffffffffffffffffffffffffffffffffffff1681526020018473ffffffffffffffffffffffffffffffffffffffff1673ffffffffffffffffffffffffffffffffffffffff16815260200183815260200180602001828103825283818151815260200191508051906020019080838360005b8381101561221f578082015181840152602081019050612204565b50505050905090810190601f16801561224c5780820380516001836020036101000a031916815260200191505b5095505050505050602060405180830381600087803b15801561226e57600080fd5b505af1158015612282573d6000803e3d6000fd5b505050506040513d602081101561229857600080fd5b8101908080519060200190929190505050905063150b7a0260e01b7bffffffffffffffffffffffffffffffffffffffffffffffffffffffff1916817bffffffffffffffffffffffffffffffffffffffffffffffffffffffff1916149150505b949350505050565b600060019054906101000a900460ff168061231e575061231d611734565b5b8061233557506000809054906101000a900460ff16155b61238a576040517f08c379a000000000000000000000000000000000000000000000000000000000815260040180806020018281038252602e81526020018061280f602e913960400191505060405180910390fd5b60008060019054906101000a900460ff1615905080156123da576001600060016101000a81548160ff02191690831515021790555060016000806101000a81548160ff0219169083151502179055505b6123e382610a75565b6123f1576123f08261195d565b5b80156124125760008060016101000a81548160ff0219169083151502179055505b5050565b600073ffffffffffffffffffffffffffffffffffffffff166067600083815260200190815260200160002060009054906101000a900473ffffffffffffffffffffffffffffffffffffffff1673ffffffffffffffffffffffffffffffffffffffff16146124d15760006067600083815260200190815260200160002060006101000a81548173ffffffffffffffffffffffffffffffffffffffff021916908373ffffffffffffffffffffffffffffffffffffffff1602179055505b50565b6124ec6001826000015461255890919063ffffffff16565b816000018190555050565b6001816000016000828254019250508190555050565b60008060007fc5d2460186f7233c927e7db2dcc703c0e500b653ca82273b7bfad8045d85a47060001b9050833f91506000801b821415801561254f5750808214155b92505050919050565b600061259a83836040518060400160405280601e81526020017f536166654d6174683a207375627472616374696f6e206f766572666c6f7700008152506125a2565b905092915050565b600083831115829061264f576040517f08c379a00000000000000000000000000000000000000000000000000000000081526004018080602001828103825283818151815260200191508051906020019080838360005b838110156126145780820151818401526020810190506125f9565b50505050905090810190601f1680156126415780820380516001836020036101000a031916815260200191505b509250505060405180910390fd5b506000838503905080915050939250505056fe4552433732313a207472616e7366657220746f206e6f6e20455243373231526563656976657220696d706c656d656e746572506175736572526f6c653a2063616c6c657220646f6573206e6f742068617665207468652050617573657220726f6c654552433732313a207472616e7366657220746f20746865207a65726f20616464726573734552433732313a206f70657261746f7220717565727920666f72206e6f6e6578697374656e7420746f6b656e4552433732313a20617070726f76652063616c6c6572206973206e6f74206f776e6572206e6f7220617070726f76656420666f7220616c6c4552433732313a2062616c616e636520717565727920666f7220746865207a65726f20616464726573734552433732313a206f776e657220717565727920666f72206e6f6e6578697374656e7420746f6b656e526f6c65733a206163636f756e7420646f6573206e6f74206861766520726f6c654552433732313a20617070726f76656420717565727920666f72206e6f6e6578697374656e7420746f6b656e526f6c65733a206163636f756e7420697320746865207a65726f2061646472657373436f6e747261637420696e7374616e63652068617320616c7265616479206265656e20696e697469616c697a65644552433732313a207472616e73666572206f6620746f6b656e2074686174206973206e6f74206f776e4552433732313a20617070726f76616c20746f2063757272656e74206f776e65724552433732313a207472616e736665722063616c6c6572206973206e6f74206f776e6572206e6f7220617070726f766564a165627a7a723058201730725307c62524a66d7b8425d20d9e7254476ee02cce39f76ec1acfd265c500029",
  "source": "pragma solidity ^0.5.0;\n\nimport \"@openzeppelin/upgrades/contracts/Initializable.sol\";\nimport \"./ERC721.sol\";\nimport \"../../lifecycle/Pausable.sol\";\n\n/**\n * @title ERC721 Non-Fungible Pausable token\n * @dev ERC721 modified with pausable transfers.\n */\ncontract ERC721Pausable is Initializable, ERC721, Pausable {\n    function initialize(address sender) public initializer {\n        require(ERC721._hasBeenInitialized());\n        Pausable.initialize(sender);\n    }\n\n    function approve(address to, uint256 tokenId) public whenNotPaused {\n        super.approve(to, tokenId);\n    }\n\n    function setApprovalForAll(address to, bool approved) public whenNotPaused {\n        super.setApprovalForAll(to, approved);\n    }\n\n    function _transferFrom(address from, address to, uint256 tokenId) internal whenNotPaused {\n        super._transferFrom(from, to, tokenId);\n    }\n\n    uint256[50] private ______gap;\n}\n",
  "sourcePath": "@openzeppelin/contracts-ethereum-package/contracts/token/ERC721/ERC721Pausable.sol",
  "compiler": {
    "name": "solc",
    "version": "0.5.8+commit.23d335f2.Emscripten.clang"
  },
  "schemaVersion": "3.0.20",
  "updatedAt": "2020-02-08T19:57:37.024Z",
  "devdoc": {
    "details": "ERC721 modified with pausable transfers.",
    "methods": {
      "balanceOf(address)": {
        "details": "Gets the balance of the specified address.",
        "params": {
          "owner": "address to query the balance of"
        },
        "return": "uint256 representing the amount owned by the passed address"
      },
      "getApproved(uint256)": {
        "details": "Gets the approved address for a token ID, or zero if no address set Reverts if the token ID does not exist.",
        "params": {
          "tokenId": "uint256 ID of the token to query the approval of"
        },
        "return": "address currently approved for the given token ID"
      },
      "isApprovedForAll(address,address)": {
        "details": "Tells whether an operator is approved by a given owner.",
        "params": {
          "operator": "operator address which you want to query the approval of",
          "owner": "owner address which you want to query the approval of"
        },
        "return": "bool whether the given operator is approved by the given owner"
      },
      "ownerOf(uint256)": {
        "details": "Gets the owner of the specified token ID.",
        "params": {
          "tokenId": "uint256 ID of the token to query the owner of"
        },
        "return": "address currently marked as the owner of the given token ID"
      },
      "pause()": {
        "details": "Called by a pauser to pause, triggers stopped state."
      },
      "paused()": {
        "details": "Returns true if the contract is paused, and false otherwise."
      },
      "safeTransferFrom(address,address,uint256)": {
        "details": "Safely transfers the ownership of a given token ID to another address If the target address is a contract, it must implement {IERC721Receiver-onERC721Received}, which is called upon a safe transfer, and return the magic value `bytes4(keccak256(\"onERC721Received(address,address,uint256,bytes)\"))`; otherwise, the transfer is reverted. Requires the msg.sender to be the owner, approved, or operator",
        "params": {
          "from": "current owner of the token",
          "to": "address to receive the ownership of the given token ID",
          "tokenId": "uint256 ID of the token to be transferred"
        }
      },
      "safeTransferFrom(address,address,uint256,bytes)": {
        "details": "Safely transfers the ownership of a given token ID to another address If the target address is a contract, it must implement {IERC721Receiver-onERC721Received}, which is called upon a safe transfer, and return the magic value `bytes4(keccak256(\"onERC721Received(address,address,uint256,bytes)\"))`; otherwise, the transfer is reverted. Requires the _msgSender() to be the owner, approved, or operator",
        "params": {
          "_data": "bytes data to send along with a safe transfer check",
          "from": "current owner of the token",
          "to": "address to receive the ownership of the given token ID",
          "tokenId": "uint256 ID of the token to be transferred"
        }
      },
      "supportsInterface(bytes4)": {
        "details": "See {IERC165-supportsInterface}.     * Time complexity O(1), guaranteed to always use less than 30 000 gas."
      },
      "transferFrom(address,address,uint256)": {
        "details": "Transfers the ownership of a given token ID to another address. Usage of this method is discouraged, use {safeTransferFrom} whenever possible. Requires the msg.sender to be the owner, approved, or operator.",
        "params": {
          "from": "current owner of the token",
          "to": "address to receive the ownership of the given token ID",
          "tokenId": "uint256 ID of the token to be transferred"
        }
      },
      "unpause()": {
        "details": "Called by a pauser to unpause, returns to normal state."
      }
    },
    "title": "ERC721 Non-Fungible Pausable token"
  },
  "userdoc": {
    "methods": {}
  }
}