{
  "contractName": "IDRTCashV1",
  "abi": [
    {
      "constant": true,
      "inputs": [
        {
          "name": "interfaceId",
          "type": "bytes4"
        }
      ],
      "name": "supportsInterface",
      "outputs": [
        {
          "name": "",
          "type": "bool"
        }
      ],
      "payable": false,
      "stateMutability": "view",
      "type": "function"
    },
    {
      "constant": true,
      "inputs": [],
      "name": "name",
      "outputs": [
        {
          "name": "",
          "type": "string"
        }
      ],
      "payable": false,
      "stateMutability": "view",
      "type": "function"
    },
    {
      "constant": true,
      "inputs": [
        {
          "name": "tokenId",
          "type": "uint256"
        }
      ],
      "name": "getApproved",
      "outputs": [
        {
          "name": "",
          "type": "address"
        }
      ],
      "payable": false,
      "stateMutability": "view",
      "type": "function"
    },
    {
      "constant": false,
      "inputs": [
        {
          "name": "to",
          "type": "address"
        },
        {
          "name": "tokenId",
          "type": "uint256"
        }
      ],
      "name": "approve",
      "outputs": [],
      "payable": false,
      "stateMutability": "nonpayable",
      "type": "function"
    },
    {
      "constant": true,
      "inputs": [],
      "name": "totalSupply",
      "outputs": [
        {
          "name": "",
          "type": "uint256"
        }
      ],
      "payable": false,
      "stateMutability": "view",
      "type": "function"
    },
    {
      "constant": false,
      "inputs": [
        {
          "name": "from",
          "type": "address"
        },
        {
          "name": "to",
          "type": "address"
        },
        {
          "name": "tokenId",
          "type": "uint256"
        }
      ],
      "name": "transferFrom",
      "outputs": [],
      "payable": false,
      "stateMutability": "nonpayable",
      "type": "function"
    },
    {
      "constant": true,
      "inputs": [
        {
          "name": "owner",
          "type": "address"
        },
        {
          "name": "index",
          "type": "uint256"
        }
      ],
      "name": "tokenOfOwnerByIndex",
      "outputs": [
        {
          "name": "",
          "type": "uint256"
        }
      ],
      "payable": false,
      "stateMutability": "view",
      "type": "function"
    },
    {
      "constant": false,
      "inputs": [],
      "name": "unpause",
      "outputs": [],
      "payable": false,
      "stateMutability": "nonpayable",
      "type": "function"
    },
    {
      "constant": false,
      "inputs": [
        {
          "name": "from",
          "type": "address"
        },
        {
          "name": "to",
          "type": "address"
        },
        {
          "name": "tokenId",
          "type": "uint256"
        }
      ],
      "name": "safeTransferFrom",
      "outputs": [],
      "payable": false,
      "stateMutability": "nonpayable",
      "type": "function"
    },
    {
      "constant": true,
      "inputs": [
        {
          "name": "account",
          "type": "address"
        }
      ],
      "name": "isPauser",
      "outputs": [
        {
          "name": "",
          "type": "bool"
        }
      ],
      "payable": false,
      "stateMutability": "view",
      "type": "function"
    },
    {
      "constant": true,
      "inputs": [
        {
          "name": "index",
          "type": "uint256"
        }
      ],
      "name": "tokenByIndex",
      "outputs": [
        {
          "name": "",
          "type": "uint256"
        }
      ],
      "payable": false,
      "stateMutability": "view",
      "type": "function"
    },
    {
      "constant": true,
      "inputs": [],
      "name": "paused",
      "outputs": [
        {
          "name": "",
          "type": "bool"
        }
      ],
      "payable": false,
      "stateMutability": "view",
      "type": "function"
    },
    {
      "constant": true,
      "inputs": [],
      "name": "lighthouse",
      "outputs": [
        {
          "name": "",
          "type": "address"
        }
      ],
      "payable": false,
      "stateMutability": "view",
      "type": "function"
    },
    {
      "constant": true,
      "inputs": [
        {
          "name": "tokenId",
          "type": "uint256"
        }
      ],
      "name": "ownerOf",
      "outputs": [
        {
          "name": "",
          "type": "address"
        }
      ],
      "payable": false,
      "stateMutability": "view",
      "type": "function"
    },
    {
      "constant": false,
      "inputs": [],
      "name": "renouncePauser",
      "outputs": [],
      "payable": false,
      "stateMutability": "nonpayable",
      "type": "function"
    },
    {
      "constant": true,
      "inputs": [
        {
          "name": "owner",
          "type": "address"
        }
      ],
      "name": "balanceOf",
      "outputs": [
        {
          "name": "",
          "type": "uint256"
        }
      ],
      "payable": false,
      "stateMutability": "view",
      "type": "function"
    },
    {
      "constant": true,
      "inputs": [],
      "name": "erc20",
      "outputs": [
        {
          "name": "",
          "type": "address"
        }
      ],
      "payable": false,
      "stateMutability": "view",
      "type": "function"
    },
    {
      "constant": false,
      "inputs": [
        {
          "name": "account",
          "type": "address"
        }
      ],
      "name": "addPauser",
      "outputs": [],
      "payable": false,
      "stateMutability": "nonpayable",
      "type": "function"
    },
    {
      "constant": false,
      "inputs": [],
      "name": "pause",
      "outputs": [],
      "payable": false,
      "stateMutability": "nonpayable",
      "type": "function"
    },
    {
      "constant": true,
      "inputs": [],
      "name": "symbol",
      "outputs": [
        {
          "name": "",
          "type": "string"
        }
      ],
      "payable": false,
      "stateMutability": "view",
      "type": "function"
    },
    {
      "constant": false,
      "inputs": [
        {
          "name": "to",
          "type": "address"
        },
        {
          "name": "approved",
          "type": "bool"
        }
      ],
      "name": "setApprovalForAll",
      "outputs": [],
      "payable": false,
      "stateMutability": "nonpayable",
      "type": "function"
    },
    {
      "constant": true,
      "inputs": [
        {
          "name": "",
          "type": "uint256"
        }
      ],
      "name": "tokenDenom",
      "outputs": [
        {
          "name": "",
          "type": "uint256"
        }
      ],
      "payable": false,
      "stateMutability": "view",
      "type": "function"
    },
    {
      "constant": false,
      "inputs": [
        {
          "name": "from",
          "type": "address"
        },
        {
          "name": "to",
          "type": "address"
        },
        {
          "name": "tokenId",
          "type": "uint256"
        },
        {
          "name": "_data",
          "type": "bytes"
        }
      ],
      "name": "safeTransferFrom",
      "outputs": [],
      "payable": false,
      "stateMutability": "nonpayable",
      "type": "function"
    },
    {
      "constant": true,
      "inputs": [
        {
          "name": "owner",
          "type": "address"
        },
        {
          "name": "operator",
          "type": "address"
        }
      ],
      "name": "isApprovedForAll",
      "outputs": [
        {
          "name": "",
          "type": "bool"
        }
      ],
      "payable": false,
      "stateMutability": "view",
      "type": "function"
    },
    {
      "anonymous": false,
      "inputs": [
        {
          "indexed": false,
          "name": "account",
          "type": "address"
        }
      ],
      "name": "Paused",
      "type": "event"
    },
    {
      "anonymous": false,
      "inputs": [
        {
          "indexed": false,
          "name": "account",
          "type": "address"
        }
      ],
      "name": "Unpaused",
      "type": "event"
    },
    {
      "anonymous": false,
      "inputs": [
        {
          "indexed": true,
          "name": "account",
          "type": "address"
        }
      ],
      "name": "PauserAdded",
      "type": "event"
    },
    {
      "anonymous": false,
      "inputs": [
        {
          "indexed": true,
          "name": "account",
          "type": "address"
        }
      ],
      "name": "PauserRemoved",
      "type": "event"
    },
    {
      "anonymous": false,
      "inputs": [
        {
          "indexed": true,
          "name": "from",
          "type": "address"
        },
        {
          "indexed": true,
          "name": "to",
          "type": "address"
        },
        {
          "indexed": true,
          "name": "tokenId",
          "type": "uint256"
        }
      ],
      "name": "Transfer",
      "type": "event"
    },
    {
      "anonymous": false,
      "inputs": [
        {
          "indexed": true,
          "name": "owner",
          "type": "address"
        },
        {
          "indexed": true,
          "name": "approved",
          "type": "address"
        },
        {
          "indexed": true,
          "name": "tokenId",
          "type": "uint256"
        }
      ],
      "name": "Approval",
      "type": "event"
    },
    {
      "anonymous": false,
      "inputs": [
        {
          "indexed": true,
          "name": "owner",
          "type": "address"
        },
        {
          "indexed": true,
          "name": "operator",
          "type": "address"
        },
        {
          "indexed": false,
          "name": "approved",
          "type": "bool"
        }
      ],
      "name": "ApprovalForAll",
      "type": "event"
    },
    {
      "constant": false,
      "inputs": [
        {
          "name": "denoms",
          "type": "uint256[]"
        },
        {
          "name": "erc20Address",
          "type": "address"
        },
        {
          "name": "lighthouseAddress",
          "type": "address"
        },
        {
          "name": "baseURI",
          "type": "string"
        }
      ],
      "name": "initialize",
      "outputs": [],
      "payable": false,
      "stateMutability": "nonpayable",
      "type": "function"
    },
    {
      "constant": false,
      "inputs": [
        {
          "name": "sender",
          "type": "address"
        }
      ],
      "name": "initialize",
      "outputs": [],
      "payable": false,
      "stateMutability": "nonpayable",
      "type": "function"
    },
    {
      "constant": false,
      "inputs": [],
      "name": "initialize",
      "outputs": [],
      "payable": false,
      "stateMutability": "nonpayable",
      "type": "function"
    },
    {
      "constant": false,
      "inputs": [
        {
          "name": "name",
          "type": "string"
        },
        {
          "name": "symbol",
          "type": "string"
        }
      ],
      "name": "initialize",
      "outputs": [],
      "payable": false,
      "stateMutability": "nonpayable",
      "type": "function"
    },
    {
      "constant": true,
      "inputs": [
        {
          "name": "index",
          "type": "uint256"
        }
      ],
      "name": "denominations",
      "outputs": [
        {
          "name": "",
          "type": "uint256"
        }
      ],
      "payable": false,
      "stateMutability": "view",
      "type": "function"
    },
    {
      "constant": true,
      "inputs": [],
      "name": "baseURI",
      "outputs": [
        {
          "name": "",
          "type": "string"
        }
      ],
      "payable": false,
      "stateMutability": "view",
      "type": "function"
    },
    {
      "constant": true,
      "inputs": [
        {
          "name": "tokenId",
          "type": "uint256"
        }
      ],
      "name": "tokenURI",
      "outputs": [
        {
          "name": "",
          "type": "string"
        }
      ],
      "payable": false,
      "stateMutability": "view",
      "type": "function"
    },
    {
      "constant": false,
      "inputs": [
        {
          "name": "amount",
          "type": "uint256"
        }
      ],
      "name": "mint",
      "outputs": [],
      "payable": false,
      "stateMutability": "nonpayable",
      "type": "function"
    },
    {
      "constant": false,
      "inputs": [
        {
          "name": "tokenId",
          "type": "uint256"
        }
      ],
      "name": "burn",
      "outputs": [],
      "payable": false,
      "stateMutability": "nonpayable",
      "type": "function"
    },
    {
      "constant": false,
      "inputs": [
        {
          "name": "tokenIds",
          "type": "uint256[]"
        }
      ],
      "name": "burnBatch",
      "outputs": [],
      "payable": false,
      "stateMutability": "nonpayable",
      "type": "function"
    },
    {
      "constant": true,
      "inputs": [
        {
          "name": "owner",
          "type": "address"
        }
      ],
      "name": "getOwnedTokens",
      "outputs": [
        {
          "name": "",
          "type": "uint256[]"
        }
      ],
      "payable": false,
      "stateMutability": "view",
      "type": "function"
    }
  ],
  "bytecode": "0x60806040526155d4806100136000396000f3fe608060405234801561001057600080fd5b50600436106102115760003560e01c80636ef8d66d11610125578063a4458c65116100ad578063c87b56dd1161007c578063c87b56dd14610d39578063d9d6165514610de0578063e4623c1b14610e79578063e985e9c514610f31578063f3ce61ad14610fad57610211565b8063a4458c6514610aa0578063b1807e0f14610bae578063b88d4fde14610bf0578063c4d66de814610cf557610211565b806382dc1ec4116100f457806382dc1ec4146109515780638456cb591461099557806395d89b411461099f578063a0712d6814610a22578063a22cb46514610a5057610211565b80636ef8d66d1461089b57806370a08231146108a5578063785e9e86146108fd5780638129fc1c1461094757610211565b806342842e0e116101a85780634f6ccce7116101775780634f6ccce7146106fc5780635c975abb1461073e5780636301fd63146107605780636352211e146107aa5780636c0360eb1461081857610211565b806342842e0e146104b257806342966c681461052057806346fbf68e1461054e5780634cd88b76146105aa57610211565b806318160ddd116101e457806318160ddd146103ba57806323b872dd146103d85780632f745c59146104465780633f4ba83a146104a857610211565b806301ffc9a71461021657806306fdde031461027b578063081812fc146102fe578063095ea7b31461036c575b600080fd5b6102616004803603602081101561022c57600080fd5b8101908080357bffffffffffffffffffffffffffffffffffffffffffffffffffffffff19169060200190929190505050610fef565b604051808215151515815260200191505060405180910390f35b610283611057565b6040518080602001828103825283818151815260200191508051906020019080838360005b838110156102c35780820151818401526020810190506102a8565b50505050905090810190601f1680156102f05780820380516001836020036101000a031916815260200191505b509250505060405180910390f35b61032a6004803603602081101561031457600080fd5b81019080803590602001909291905050506110f9565b604051808273ffffffffffffffffffffffffffffffffffffffff1673ffffffffffffffffffffffffffffffffffffffff16815260200191505060405180910390f35b6103b86004803603604081101561038257600080fd5b81019080803573ffffffffffffffffffffffffffffffffffffffff16906020019092919080359060200190929190505050611194565b005b6103c2611226565b6040518082815260200191505060405180910390f35b610444600480360360608110156103ee57600080fd5b81019080803573ffffffffffffffffffffffffffffffffffffffff169060200190929190803573ffffffffffffffffffffffffffffffffffffffff16906020019092919080359060200190929190505050611233565b005b6104926004803603604081101561045c57600080fd5b81019080803573ffffffffffffffffffffffffffffffffffffffff169060200190929190803590602001909291905050506112a9565b6040518082815260200191505060405180910390f35b6104b0611368565b005b61051e600480360360608110156104c857600080fd5b81019080803573ffffffffffffffffffffffffffffffffffffffff169060200190929190803573ffffffffffffffffffffffffffffffffffffffff169060200190929190803590602001909291905050506114d8565b005b61054c6004803603602081101561053657600080fd5b81019080803590602001909291905050506114f8565b005b6105906004803603602081101561056457600080fd5b81019080803573ffffffffffffffffffffffffffffffffffffffff1690602001909291905050506117c8565b604051808215151515815260200191505060405180910390f35b6106fa600480360360408110156105c057600080fd5b81019080803590602001906401000000008111156105dd57600080fd5b8201836020820111156105ef57600080fd5b8035906020019184600183028401116401000000008311171561061157600080fd5b91908080601f016020809104026020016040519081016040528093929190818152602001838380828437600081840152601f19601f8201169050808301925050505050505091929192908035906020019064010000000081111561067457600080fd5b82018360208201111561068657600080fd5b803590602001918460018302840111640100000000831117156106a857600080fd5b91908080601f016020809104026020016040519081016040528093929190818152602001838380828437600081840152601f19601f8201169050808301925050505050505091929192905050506117e6565b005b6107286004803603602081101561071257600080fd5b8101908080359060200190929190505050611936565b6040518082815260200191505060405180910390f35b6107466119b6565b604051808215151515815260200191505060405180910390f35b6107686119ce565b604051808273ffffffffffffffffffffffffffffffffffffffff1673ffffffffffffffffffffffffffffffffffffffff16815260200191505060405180910390f35b6107d6600480360360208110156107c057600080fd5b81019080803590602001909291905050506119f5565b604051808273ffffffffffffffffffffffffffffffffffffffff1673ffffffffffffffffffffffffffffffffffffffff16815260200191505060405180910390f35b610820611abd565b6040518080602001828103825283818151815260200191508051906020019080838360005b83811015610860578082015181840152602081019050610845565b50505050905090810190601f16801561088d5780820380516001836020036101000a031916815260200191505b509250505060405180910390f35b6108a3611b60565b005b6108e7600480360360208110156108bb57600080fd5b81019080803573ffffffffffffffffffffffffffffffffffffffff169060200190929190505050611b72565b6040518082815260200191505060405180910390f35b610905611c47565b604051808273ffffffffffffffffffffffffffffffffffffffff1673ffffffffffffffffffffffffffffffffffffffff16815260200191505060405180910390f35b61094f611c6e565b005b6109936004803603602081101561096757600080fd5b81019080803573ffffffffffffffffffffffffffffffffffffffff169060200190929190505050611d8e565b005b61099d611dff565b005b6109a7611f70565b6040518080602001828103825283818151815260200191508051906020019080838360005b838110156109e75780820151818401526020810190506109cc565b50505050905090810190601f168015610a145780820380516001836020036101000a031916815260200191505b509250505060405180910390f35b610a4e60048036036020811015610a3857600080fd5b8101908080359060200190929190505050612012565b005b610a9e60048036036040811015610a6657600080fd5b81019080803573ffffffffffffffffffffffffffffffffffffffff1690602001909291908035151590602001909291905050506125d9565b005b610bac60048036036080811015610ab657600080fd5b8101908080359060200190640100000000811115610ad357600080fd5b820183602082011115610ae557600080fd5b80359060200191846020830284011164010000000083111715610b0757600080fd5b9091929391929390803573ffffffffffffffffffffffffffffffffffffffff169060200190929190803573ffffffffffffffffffffffffffffffffffffffff16906020019092919080359060200190640100000000811115610b6857600080fd5b820183602082011115610b7a57600080fd5b80359060200191846001830284011164010000000083111715610b9c57600080fd5b909192939192939050505061266b565b005b610bda60048036036020811015610bc457600080fd5b8101908080359060200190929190505050612967565b6040518082815260200191505060405180910390f35b610cf360048036036080811015610c0657600080fd5b81019080803573ffffffffffffffffffffffffffffffffffffffff169060200190929190803573ffffffffffffffffffffffffffffffffffffffff1690602001909291908035906020019092919080359060200190640100000000811115610c6d57600080fd5b820183602082011115610c7f57600080fd5b80359060200191846001830284011164010000000083111715610ca157600080fd5b91908080601f016020809104026020016040519081016040528093929190818152602001838380828437600081840152601f19601f820116905080830192505050505050509192919290505050612980565b005b610d3760048036036020811015610d0b57600080fd5b81019080803573ffffffffffffffffffffffffffffffffffffffff1690602001909291905050506129f8565b005b610d6560048036036020811015610d4f57600080fd5b8101908080359060200190929190505050612b12565b6040518080602001828103825283818151815260200191508051906020019080838360005b83811015610da5578082015181840152602081019050610d8a565b50505050905090810190601f168015610dd25780820380516001836020036101000a031916815260200191505b509250505060405180910390f35b610e2260048036036020811015610df657600080fd5b81019080803573ffffffffffffffffffffffffffffffffffffffff169060200190929190505050612c71565b6040518080602001828103825283818151815260200191508051906020019060200280838360005b83811015610e65578082015181840152602081019050610e4a565b505050509050019250505060405180910390f35b610f2f60048036036020811015610e8f57600080fd5b8101908080359060200190640100000000811115610eac57600080fd5b820183602082011115610ebe57600080fd5b80359060200191846020830284011164010000000083111715610ee057600080fd5b919080806020026020016040519081016040528093929190818152602001838360200280828437600081840152601f19601f820116905080830192505050505050509192919290505050612cd2565b005b610f9360048036036040811015610f4757600080fd5b81019080803573ffffffffffffffffffffffffffffffffffffffff169060200190929190803573ffffffffffffffffffffffffffffffffffffffff169060200190929190505050612d8f565b604051808215151515815260200191505060405180910390f35b610fd960048036036020811015610fc357600080fd5b8101908080359060200190929190505050612e23565b6040518082815260200191505060405180910390f35b600060336000837bffffffffffffffffffffffffffffffffffffffffffffffffffffffff19167bffffffffffffffffffffffffffffffffffffffffffffffffffffffff1916815260200190815260200160002060009054906101000a900460ff169050919050565b606060d28054600181600116156101000203166002900480601f0160208091040260200160405190810160405280929190818152602001828054600181600116156101000203166002900480156110ef5780601f106110c4576101008083540402835291602001916110ef565b820191906000526020600020905b8154815290600101906020018083116110d257829003601f168201915b5050505050905090565b600061110482612e60565b611159576040517f08c379a000000000000000000000000000000000000000000000000000000000815260040180806020018281038252602c8152602001806153cb602c913960400191505060405180910390fd5b6067600083815260200190815260200160002060009054906101000a900473ffffffffffffffffffffffffffffffffffffffff169050919050565b61013a60009054906101000a900460ff1615611218576040517f08c379a00000000000000000000000000000000000000000000000000000000081526004018080602001828103825260108152602001807f5061757361626c653a207061757365640000000000000000000000000000000081525060200191505060405180910390fd5b6112228282612ed2565b5050565b6000609e80549050905090565b61124461123e6130b9565b826130c1565b611299576040517f08c379a00000000000000000000000000000000000000000000000000000000081526004018080602001828103825260318152602001806154c06031913960400191505060405180910390fd5b6112a48383836131b5565b505050565b60006112b483611b72565b821061130b576040517f08c379a000000000000000000000000000000000000000000000000000000000815260040180806020018281038252602b8152602001806151ca602b913960400191505060405180910390fd5b609c60008473ffffffffffffffffffffffffffffffffffffffff1673ffffffffffffffffffffffffffffffffffffffff168152602001908152602001600020828154811061135557fe5b9060005260206000200154905092915050565b6113786113736130b9565b6117c8565b6113cd576040517f08c379a00000000000000000000000000000000000000000000000000000000081526004018080602001828103825260308152602001806152276030913960400191505060405180910390fd5b61013a60009054906101000a900460ff16611450576040517f08c379a00000000000000000000000000000000000000000000000000000000081526004018080602001828103825260148152602001807f5061757361626c653a206e6f742070617573656400000000000000000000000081525060200191505060405180910390fd5b600061013a60006101000a81548160ff0219169083151502179055507f5db9ee0a495bf2e6ff9c91a7834c1ba4fdd244a5e8aa4e537bd38aeae4b073aa6114956130b9565b604051808273ffffffffffffffffffffffffffffffffffffffff1673ffffffffffffffffffffffffffffffffffffffff16815260200191505060405180910390a1565b6114f383838360405180602001604052806000815250612980565b505050565b80611502816119f5565b73ffffffffffffffffffffffffffffffffffffffff166115206130b9565b73ffffffffffffffffffffffffffffffffffffffff161461158c576040517f08c379a00000000000000000000000000000000000000000000000000000000081526004018080602001828103825260328152602001806152cc6032913960400191505060405180910390fd5b61013a60009054906101000a900460ff1615611610576040517f08c379a00000000000000000000000000000000000000000000000000000000081526004018080602001828103825260108152602001807f5061757361626c653a207061757365640000000000000000000000000000000081525060200191505060405180910390fd5b61162161161b6130b9565b83613249565b60006116686101a154600a0a6101a46101a36000878152602001908152602001600020548154811061164f57fe5b90600052602060002001546132a690919063ffffffff16565b90506101a36000848152602001908152602001600020600090556101a060009054906101000a900473ffffffffffffffffffffffffffffffffffffffff1673ffffffffffffffffffffffffffffffffffffffff1663a9059cbb6116c96130b9565b836040518363ffffffff1660e01b8152600401808373ffffffffffffffffffffffffffffffffffffffff1673ffffffffffffffffffffffffffffffffffffffff16815260200182815260200192505050602060405180830381600087803b15801561173357600080fd5b505af1158015611747573d6000803e3d6000fd5b505050506040513d602081101561175d57600080fd5b81019080805190602001909291905050506117c3576040517f08c379a00000000000000000000000000000000000000000000000000000000081526004018080602001828103825260258152602001806152576025913960400191505060405180910390fd5b505050565b60006117df8261010761332c90919063ffffffff16565b9050919050565b600060019054906101000a900460ff1680611805575061180461340a565b5b8061181c57506000809054906101000a900460ff16155b611871576040517f08c379a000000000000000000000000000000000000000000000000000000000815260040180806020018281038252602e815260200180615419602e913960400191505060405180910390fd5b60008060019054906101000a900460ff1615905080156118c1576001600060016101000a81548160ff02191690831515021790555060016000806101000a81548160ff0219169083151502179055505b6118c961341b565b6118d257600080fd5b8260d290805190602001906118e8929190614fab565b508160d390805190602001906118ff929190614fab565b50611910635b5e139f60e01b613432565b80156119315760008060016101000a81548160ff0219169083151502179055505b505050565b6000611940611226565b8210611997576040517f08c379a000000000000000000000000000000000000000000000000000000000815260040180806020018281038252602c8152602001806154f1602c913960400191505060405180910390fd5b609e82815481106119a457fe5b90600052602060002001549050919050565b600061013a60009054906101000a900460ff16905090565b61019f60009054906101000a900473ffffffffffffffffffffffffffffffffffffffff1681565b6000806066600084815260200190815260200160002060009054906101000a900473ffffffffffffffffffffffffffffffffffffffff169050600073ffffffffffffffffffffffffffffffffffffffff168173ffffffffffffffffffffffffffffffffffffffff161415611ab4576040517f08c379a00000000000000000000000000000000000000000000000000000000081526004018080602001828103825260298152602001806153606029913960400191505060405180910390fd5b80915050919050565b60606101a28054600181600116156101000203166002900480601f016020809104026020016040519081016040528092919081815260200182805460018160011615610100020316600290048015611b565780601f10611b2b57610100808354040283529160200191611b56565b820191906000526020600020905b815481529060010190602001808311611b3957829003601f168201915b5050505050905090565b611b70611b6b6130b9565b61353b565b565b60008073ffffffffffffffffffffffffffffffffffffffff168273ffffffffffffffffffffffffffffffffffffffff161415611bf9576040517f08c379a000000000000000000000000000000000000000000000000000000000815260040180806020018281038252602a815260200180615336602a913960400191505060405180910390fd5b611c40606860008473ffffffffffffffffffffffffffffffffffffffff1673ffffffffffffffffffffffffffffffffffffffff168152602001908152602001600020613596565b9050919050565b6101a060009054906101000a900473ffffffffffffffffffffffffffffffffffffffff1681565b600060019054906101000a900460ff1680611c8d5750611c8c61340a565b5b80611ca457506000809054906101000a900460ff16155b611cf9576040517f08c379a000000000000000000000000000000000000000000000000000000000815260040180806020018281038252602e815260200180615419602e913960400191505060405180910390fd5b60008060019054906101000a900460ff161590508015611d49576001600060016101000a81548160ff02191690831515021790555060016000806101000a81548160ff0219169083151502179055505b611d5161341b565b611d5a57600080fd5b611d6a63780e9d6360e01b613432565b8015611d8b5760008060016101000a81548160ff0219169083151502179055505b50565b611d9e611d996130b9565b6117c8565b611df3576040517f08c379a00000000000000000000000000000000000000000000000000000000081526004018080602001828103825260308152602001806152276030913960400191505060405180910390fd5b611dfc816135a4565b50565b611e0f611e0a6130b9565b6117c8565b611e64576040517f08c379a00000000000000000000000000000000000000000000000000000000081526004018080602001828103825260308152602001806152276030913960400191505060405180910390fd5b61013a60009054906101000a900460ff1615611ee8576040517f08c379a00000000000000000000000000000000000000000000000000000000081526004018080602001828103825260108152602001807f5061757361626c653a207061757365640000000000000000000000000000000081525060200191505060405180910390fd5b600161013a60006101000a81548160ff0219169083151502179055507f62e78cea01bee320cd4e420270b5ea74000d11b0c9f74754ebdbfc544b05a258611f2d6130b9565b604051808273ffffffffffffffffffffffffffffffffffffffff1673ffffffffffffffffffffffffffffffffffffffff16815260200191505060405180910390a1565b606060d38054600181600116156101000203166002900480601f0160208091040260200160405190810160405280929190818152602001828054600181600116156101000203166002900480156120085780601f10611fdd57610100808354040283529160200191612008565b820191906000526020600020905b815481529060010190602001808311611feb57829003601f168201915b5050505050905090565b80806101a060009054906101000a900473ffffffffffffffffffffffffffffffffffffffff1673ffffffffffffffffffffffffffffffffffffffff1663dd62ed3e61205b6130b9565b306040518363ffffffff1660e01b8152600401808373ffffffffffffffffffffffffffffffffffffffff1673ffffffffffffffffffffffffffffffffffffffff1681526020018273ffffffffffffffffffffffffffffffffffffffff1673ffffffffffffffffffffffffffffffffffffffff1681526020019250505060206040518083038186803b1580156120ef57600080fd5b505afa158015612103573d6000803e3d6000fd5b505050506040513d602081101561211957600080fd5b81019080805190602001909291905050501015612181576040517f08c379a00000000000000000000000000000000000000000000000000000000081526004018080602001828103825260678152602001806155426067913960800191505060405180910390fd5b61013a60009054906101000a900460ff1615612205576040517f08c379a00000000000000000000000000000000000000000000000000000000081526004018080602001828103825260108152602001807f5061757361626c653a207061757365640000000000000000000000000000000081525060200191505060405180910390fd5b60008061019f60009054906101000a900473ffffffffffffffffffffffffffffffffffffffff1673ffffffffffffffffffffffffffffffffffffffff1663420b81f66040518163ffffffff1660e01b8152600401604080518083038186803b15801561227057600080fd5b505afa158015612284573d6000803e3d6000fd5b505050506040513d604081101561229a57600080fd5b81019080805190602001909291908051906020019092919050505091506fffffffffffffffffffffffffffffffff16915080612321576040517f08c379a00000000000000000000000000000000000000000000000000000000081526004018080602001828103825260388152602001806151926038913960400191505060405180910390fd5b600061233c6101a154600a0a866135ff90919063ffffffff16565b90506060600061234b83613649565b9150915060005b825181101561247c575b600083828151811061236a57fe5b6020026020010151111561246f57600083828151811061238657fe5b602002602001015190506000829050600082826123a16130b9565b8b6001430340604051602001808681526020018581526020018473ffffffffffffffffffffffffffffffffffffffff1673ffffffffffffffffffffffffffffffffffffffff1660601b8152601401838152602001828152602001955050505050506040516020818303038152906040528051906020012060001c905061242e6124286130b9565b82613721565b816101a360008381526020019081526020016000208190555085848151811061245357fe5b602002602001018051809190600190038152505050505061235c565b8080600101915050612352565b506101a060009054906101000a900473ffffffffffffffffffffffffffffffffffffffff1673ffffffffffffffffffffffffffffffffffffffff166323b872dd6124c46130b9565b306124f06101a154600a0a6124e2878a61374290919063ffffffff16565b6132a690919063ffffffff16565b6040518463ffffffff1660e01b8152600401808473ffffffffffffffffffffffffffffffffffffffff1673ffffffffffffffffffffffffffffffffffffffff1681526020018373ffffffffffffffffffffffffffffffffffffffff1673ffffffffffffffffffffffffffffffffffffffff1681526020018281526020019350505050602060405180830381600087803b15801561258c57600080fd5b505af11580156125a0573d6000803e3d6000fd5b505050506040513d60208110156125b657600080fd5b81019080805190602001909291905050506125d057600080fd5b50505050505050565b61013a60009054906101000a900460ff161561265d576040517f08c379a00000000000000000000000000000000000000000000000000000000081526004018080602001828103825260108152602001807f5061757361626c653a207061757365640000000000000000000000000000000081525060200191505060405180910390fd5b612667828261378c565b5050565b600060019054906101000a900460ff168061268a575061268961340a565b5b806126a157506000809054906101000a900460ff16155b6126f6576040517f08c379a000000000000000000000000000000000000000000000000000000000815260040180806020018281038252602e815260200180615419602e913960400191505060405180910390fd5b60008060019054906101000a900460ff161590508015612746576001600060016101000a81548160ff02191690831515021790555060016000806101000a81548160ff0219169083151502179055505b61274e613944565b612756611c6e565b6127ca6040518060400160405280600881526020017f49445254436173680000000000000000000000000000000000000000000000008152506040518060400160405280600581526020017f49445254430000000000000000000000000000000000000000000000000000008152506117e6565b6127da6127d56130b9565b6129f8565b846101a060006101000a81548173ffffffffffffffffffffffffffffffffffffffff021916908373ffffffffffffffffffffffffffffffffffffffff1602179055506101a060009054906101000a900473ffffffffffffffffffffffffffffffffffffffff1673ffffffffffffffffffffffffffffffffffffffff1663313ce5676040518163ffffffff1660e01b815260040160206040518083038186803b15801561288557600080fd5b505afa158015612899573d6000803e3d6000fd5b505050506040513d60208110156128af57600080fd5b810190808051906020019092919050505060ff166101a18190555086866101a491906128dc92919061502b565b50868690506101a5819055508361019f60006101000a81548173ffffffffffffffffffffffffffffffffffffffff021916908373ffffffffffffffffffffffffffffffffffffffff16021790555082826101a2919061293c929190615078565b50801561295e5760008060016101000a81548160ff0219169083151502179055505b50505050505050565b6101a36020528060005260406000206000915090505481565b61299161298b6130b9565b836130c1565b6129e6576040517f08c379a00000000000000000000000000000000000000000000000000000000081526004018080602001828103825260318152602001806154c06031913960400191505060405180910390fd5b6129f284848484613a5b565b50505050565b600060019054906101000a900460ff1680612a175750612a1661340a565b5b80612a2e57506000809054906101000a900460ff16155b612a83576040517f08c379a000000000000000000000000000000000000000000000000000000000815260040180806020018281038252602e815260200180615419602e913960400191505060405180910390fd5b60008060019054906101000a900460ff161590508015612ad3576001600060016101000a81548160ff02191690831515021790555060016000806101000a81548160ff0219169083151502179055505b612adb61341b565b612ae457600080fd5b612aed82613acd565b8015612b0e5760008060016101000a81548160ff0219169083151502179055505b5050565b6060612b1d82612e60565b612b72576040517f08c379a000000000000000000000000000000000000000000000000000000000815260040180806020018281038252602f815260200180615470602f913960400191505060405180910390fd5b6101a2612b7e83613bf2565b6040516020018083805460018160011615610100020316600290048015612bdc5780601f10612bba576101008083540402835291820191612bdc565b820191906000526020600020905b815481529060010190602001808311612bc8575b505082805190602001908083835b60208310612c0d5780518252602082019150602081019050602083039250612bea565b6001836020036101000a038019825116818451168082178552505050505050905001807f2e6a736f6e000000000000000000000000000000000000000000000000000000815250600501925050506040516020818303038152906040529050919050565b6060612c7c82613d22565b805480602002602001604051908101604052809291908181526020018280548015612cc657602002820191906000526020600020905b815481526020019060010190808311612cb2575b50505050509050919050565b61013a60009054906101000a900460ff1615612d56576040517f08c379a00000000000000000000000000000000000000000000000000000000081526004018080602001828103825260108152602001807f5061757361626c653a207061757365640000000000000000000000000000000081525060200191505060405180910390fd5b60005b8151811015612d8b57612d7e828281518110612d7157fe5b60200260200101516114f8565b8080600101915050612d59565b5050565b6000606960008473ffffffffffffffffffffffffffffffffffffffff1673ffffffffffffffffffffffffffffffffffffffff16815260200190815260200160002060008373ffffffffffffffffffffffffffffffffffffffff1673ffffffffffffffffffffffffffffffffffffffff16815260200190815260200160002060009054906101000a900460ff16905092915050565b6000808210158015612e3757506101a55482105b612e4057600080fd5b6101a48281548110612e4e57fe5b90600052602060002001549050919050565b6000806066600084815260200190815260200160002060009054906101000a900473ffffffffffffffffffffffffffffffffffffffff169050600073ffffffffffffffffffffffffffffffffffffffff168173ffffffffffffffffffffffffffffffffffffffff161415915050919050565b6000612edd826119f5565b90508073ffffffffffffffffffffffffffffffffffffffff168373ffffffffffffffffffffffffffffffffffffffff161415612f64576040517f08c379a000000000000000000000000000000000000000000000000000000000815260040180806020018281038252602181526020018061549f6021913960400191505060405180910390fd5b8073ffffffffffffffffffffffffffffffffffffffff16612f836130b9565b73ffffffffffffffffffffffffffffffffffffffff161480612fb25750612fb181612fac6130b9565b612d8f565b5b613007576040517f08c379a00000000000000000000000000000000000000000000000000000000081526004018080602001828103825260388152602001806152fe6038913960400191505060405180910390fd5b826067600084815260200190815260200160002060006101000a81548173ffffffffffffffffffffffffffffffffffffffff021916908373ffffffffffffffffffffffffffffffffffffffff160217905550818373ffffffffffffffffffffffffffffffffffffffff168273ffffffffffffffffffffffffffffffffffffffff167f8c5be1e5ebec7d5bd14f71427d1e84f3dd0314c0f7b2291e5b200ac8c7c3b92560405160405180910390a4505050565b600033905090565b60006130cc82612e60565b613121576040517f08c379a000000000000000000000000000000000000000000000000000000000815260040180806020018281038252602c8152602001806152a0602c913960400191505060405180910390fd5b600061312c836119f5565b90508073ffffffffffffffffffffffffffffffffffffffff168473ffffffffffffffffffffffffffffffffffffffff16148061319b57508373ffffffffffffffffffffffffffffffffffffffff16613183846110f9565b73ffffffffffffffffffffffffffffffffffffffff16145b806131ac57506131ab8185612d8f565b5b91505092915050565b61013a60009054906101000a900460ff1615613239576040517f08c379a00000000000000000000000000000000000000000000000000000000081526004018080602001828103825260108152602001807f5061757361626c653a207061757365640000000000000000000000000000000081525060200191505060405180910390fd5b613244838383613d6a565b505050565b6132538282613d8e565b600060d46000838152602001908152602001600020805460018160011615610100020316600290049050146132a25760d4600082815260200190815260200160002060006132a191906150f8565b5b5050565b6000808314156132b95760009050613326565b60008284029050828482816132ca57fe5b0414613321576040517f08c379a00000000000000000000000000000000000000000000000000000000081526004018080602001828103825260218152602001806153aa6021913960400191505060405180910390fd5b809150505b92915050565b60008073ffffffffffffffffffffffffffffffffffffffff168273ffffffffffffffffffffffffffffffffffffffff1614156133b3576040517f08c379a00000000000000000000000000000000000000000000000000000000081526004018080602001828103825260228152602001806153f76022913960400191505060405180910390fd5b8260000160008373ffffffffffffffffffffffffffffffffffffffff1673ffffffffffffffffffffffffffffffffffffffff16815260200190815260200160002060009054906101000a900460ff16905092915050565b600080303b90506000811491505090565b600061342d6380ac58cd60e01b610fef565b905090565b63ffffffff60e01b817bffffffffffffffffffffffffffffffffffffffffffffffffffffffff191614156134ce576040517f08c379a000000000000000000000000000000000000000000000000000000000815260040180806020018281038252601c8152602001807f4552433136353a20696e76616c696420696e746572666163652069640000000081525060200191505060405180910390fd5b600160336000837bffffffffffffffffffffffffffffffffffffffffffffffffffffffff19167bffffffffffffffffffffffffffffffffffffffffffffffffffffffff1916815260200190815260200160002060006101000a81548160ff02191690831515021790555050565b61355081610107613dc890919063ffffffff16565b8073ffffffffffffffffffffffffffffffffffffffff167fcd265ebaf09df2871cc7bd4133404a235ba12eff2041bb89d9c714a2621c7c7e60405160405180910390a250565b600081600001549050919050565b6135b981610107613e8590919063ffffffff16565b8073ffffffffffffffffffffffffffffffffffffffff167f6719d08c1888103bea251a4ed56406bd0c3e69723c8a1686e017e7bbe159b6f860405160405180910390a250565b600061364183836040518060400160405280601a81526020017f536166654d6174683a206469766973696f6e206279207a65726f000000000000815250613f60565b905092915050565b6060600060606101a5546040519080825280602002602001820160405280156136815781602001602082028038833980820191505090505b509050600084905060006101a55490505b6000811115613713575b6101a460018203815481106136ad57fe5b90600052602060002001548210613705578260018203815181106136cd57fe5b602002602001018051809190600101815250506101a460018203815481106136f157fe5b90600052602060002001548203915061369c565b808060019003915050613692565b508181935093505050915091565b61372b8282614026565b613735828261423e565b61373e81614305565b5050565b600061378483836040518060400160405280601e81526020017f536166654d6174683a207375627472616374696f6e206f766572666c6f770000815250614351565b905092915050565b6137946130b9565b73ffffffffffffffffffffffffffffffffffffffff168273ffffffffffffffffffffffffffffffffffffffff161415613835576040517f08c379a00000000000000000000000000000000000000000000000000000000081526004018080602001828103825260198152602001807f4552433732313a20617070726f766520746f2063616c6c65720000000000000081525060200191505060405180910390fd5b80606960006138426130b9565b73ffffffffffffffffffffffffffffffffffffffff1673ffffffffffffffffffffffffffffffffffffffff16815260200190815260200160002060008473ffffffffffffffffffffffffffffffffffffffff1673ffffffffffffffffffffffffffffffffffffffff16815260200190815260200160002060006101000a81548160ff0219169083151502179055508173ffffffffffffffffffffffffffffffffffffffff166138ef6130b9565b73ffffffffffffffffffffffffffffffffffffffff167f17307eab39ab6107e8899845ad3d59bd9653f200f220920489ca2b5937696c3183604051808215151515815260200191505060405180910390a35050565b600060019054906101000a900460ff1680613963575061396261340a565b5b8061397a57506000809054906101000a900460ff16155b6139cf576040517f08c379a000000000000000000000000000000000000000000000000000000000815260040180806020018281038252602e815260200180615419602e913960400191505060405180910390fd5b60008060019054906101000a900460ff161590508015613a1f576001600060016101000a81548160ff02191690831515021790555060016000806101000a81548160ff0219169083151502179055505b613a27614411565b613a376380ac58cd60e01b613432565b8015613a585760008060016101000a81548160ff0219169083151502179055505b50565b613a668484846131b5565b613a7284848484614520565b613ac7576040517f08c379a00000000000000000000000000000000000000000000000000000000081526004018080602001828103825260328152602001806151f56032913960400191505060405180910390fd5b50505050565b600060019054906101000a900460ff1680613aec5750613aeb61340a565b5b80613b0357506000809054906101000a900460ff16155b613b58576040517f08c379a000000000000000000000000000000000000000000000000000000000815260040180806020018281038252602e815260200180615419602e913960400191505060405180910390fd5b60008060019054906101000a900460ff161590508015613ba8576001600060016101000a81548160ff02191690831515021790555060016000806101000a81548160ff0219169083151502179055505b613bb182614710565b600061013a60006101000a81548160ff0219169083151502179055508015613bee5760008060016101000a81548160ff0219169083151502179055505b5050565b60606000821415613c3a576040518060400160405280600181526020017f30000000000000000000000000000000000000000000000000000000000000008152509050613d1d565b600082905060005b60008214613c64578080600101915050600a8281613c5c57fe5b049150613c42565b6060816040519080825280601f01601f191660200182016040528015613c995781602001600182028038833980820191505090505b50905060006001830390508593505b60008414613d1557600a8481613cba57fe5b0660300160f81b82828060019003935081518110613cd457fe5b60200101907effffffffffffffffffffffffffffffffffffffffffffffffffffffffffffff1916908160001a905350600a8481613d0d57fe5b049350613ca8565b819450505050505b919050565b6000609c60008373ffffffffffffffffffffffffffffffffffffffff1673ffffffffffffffffffffffffffffffffffffffff1681526020019081526020016000209050919050565b613d75838383614827565b613d7f8382614a82565b613d89828261423e565b505050565b613d988282614c20565b613da28282614a82565b6000609d600083815260200190815260200160002081905550613dc481614daf565b5050565b613dd2828261332c565b613e27576040517f08c379a00000000000000000000000000000000000000000000000000000000081526004018080602001828103825260218152602001806153896021913960400191505060405180910390fd5b60008260000160008373ffffffffffffffffffffffffffffffffffffffff1673ffffffffffffffffffffffffffffffffffffffff16815260200190815260200160002060006101000a81548160ff0219169083151502179055505050565b613e8f828261332c565b15613f02576040517f08c379a000000000000000000000000000000000000000000000000000000000815260040180806020018281038252601f8152602001807f526f6c65733a206163636f756e7420616c72656164792068617320726f6c650081525060200191505060405180910390fd5b60018260000160008373ffffffffffffffffffffffffffffffffffffffff1673ffffffffffffffffffffffffffffffffffffffff16815260200190815260200160002060006101000a81548160ff0219169083151502179055505050565b6000808311829061400c576040517f08c379a00000000000000000000000000000000000000000000000000000000081526004018080602001828103825283818151815260200191508051906020019080838360005b83811015613fd1578082015181840152602081019050613fb6565b50505050905090810190601f168015613ffe5780820380516001836020036101000a031916815260200191505b509250505060405180910390fd5b50600083858161401857fe5b049050809150509392505050565b600073ffffffffffffffffffffffffffffffffffffffff168273ffffffffffffffffffffffffffffffffffffffff1614156140c9576040517f08c379a00000000000000000000000000000000000000000000000000000000081526004018080602001828103825260208152602001807f4552433732313a206d696e7420746f20746865207a65726f206164647265737381525060200191505060405180910390fd5b6140d281612e60565b15614145576040517f08c379a000000000000000000000000000000000000000000000000000000000815260040180806020018281038252601c8152602001807f4552433732313a20746f6b656e20616c7265616479206d696e7465640000000081525060200191505060405180910390fd5b816066600083815260200190815260200160002060006101000a81548173ffffffffffffffffffffffffffffffffffffffff021916908373ffffffffffffffffffffffffffffffffffffffff1602179055506141de606860008473ffffffffffffffffffffffffffffffffffffffff1673ffffffffffffffffffffffffffffffffffffffff168152602001908152602001600020614e69565b808273ffffffffffffffffffffffffffffffffffffffff16600073ffffffffffffffffffffffffffffffffffffffff167fddf252ad1be2c89b69c2b068fc378daa952ba7f163c4a11628f55a4df523b3ef60405160405180910390a45050565b609c60008373ffffffffffffffffffffffffffffffffffffffff1673ffffffffffffffffffffffffffffffffffffffff16815260200190815260200160002080549050609d600083815260200190815260200160002081905550609c60008373ffffffffffffffffffffffffffffffffffffffff1673ffffffffffffffffffffffffffffffffffffffff1681526020019081526020016000208190806001815401808255809150509060018203906000526020600020016000909192909190915055505050565b609e80549050609f600083815260200190815260200160002081905550609e81908060018154018082558091505090600182039060005260206000200160009091929091909150555050565b60008383111582906143fe576040517f08c379a00000000000000000000000000000000000000000000000000000000081526004018080602001828103825283818151815260200191508051906020019080838360005b838110156143c35780820151818401526020810190506143a8565b50505050905090810190601f1680156143f05780820380516001836020036101000a031916815260200191505b509250505060405180910390fd5b5060008385039050809150509392505050565b600060019054906101000a900460ff1680614430575061442f61340a565b5b8061444757506000809054906101000a900460ff16155b61449c576040517f08c379a000000000000000000000000000000000000000000000000000000000815260040180806020018281038252602e815260200180615419602e913960400191505060405180910390fd5b60008060019054906101000a900460ff1615905080156144ec576001600060016101000a81548160ff02191690831515021790555060016000806101000a81548160ff0219169083151502179055505b6144fc6301ffc9a760e01b613432565b801561451d5760008060016101000a81548160ff0219169083151502179055505b50565b60006145418473ffffffffffffffffffffffffffffffffffffffff16614e7f565b61454e5760019050614708565b60008473ffffffffffffffffffffffffffffffffffffffff1663150b7a026145746130b9565b8887876040518563ffffffff1660e01b8152600401808573ffffffffffffffffffffffffffffffffffffffff1673ffffffffffffffffffffffffffffffffffffffff1681526020018473ffffffffffffffffffffffffffffffffffffffff1673ffffffffffffffffffffffffffffffffffffffff16815260200183815260200180602001828103825283818151815260200191508051906020019080838360005b83811015614630578082015181840152602081019050614615565b50505050905090810190601f16801561465d5780820380516001836020036101000a031916815260200191505b5095505050505050602060405180830381600087803b15801561467f57600080fd5b505af1158015614693573d6000803e3d6000fd5b505050506040513d60208110156146a957600080fd5b8101908080519060200190929190505050905063150b7a0260e01b7bffffffffffffffffffffffffffffffffffffffffffffffffffffffff1916817bffffffffffffffffffffffffffffffffffffffffffffffffffffffff1916149150505b949350505050565b600060019054906101000a900460ff168061472f575061472e61340a565b5b8061474657506000809054906101000a900460ff16155b61479b576040517f08c379a000000000000000000000000000000000000000000000000000000000815260040180806020018281038252602e815260200180615419602e913960400191505060405180910390fd5b60008060019054906101000a900460ff1615905080156147eb576001600060016101000a81548160ff02191690831515021790555060016000806101000a81548160ff0219169083151502179055505b6147f4826117c8565b61480257614801826135a4565b5b80156148235760008060016101000a81548160ff0219169083151502179055505b5050565b8273ffffffffffffffffffffffffffffffffffffffff16614847826119f5565b73ffffffffffffffffffffffffffffffffffffffff16146148b3576040517f08c379a00000000000000000000000000000000000000000000000000000000081526004018080602001828103825260298152602001806154476029913960400191505060405180910390fd5b600073ffffffffffffffffffffffffffffffffffffffff168273ffffffffffffffffffffffffffffffffffffffff161415614939576040517f08c379a000000000000000000000000000000000000000000000000000000000815260040180806020018281038252602481526020018061527c6024913960400191505060405180910390fd5b61494281614eca565b614989606860008573ffffffffffffffffffffffffffffffffffffffff1673ffffffffffffffffffffffffffffffffffffffff168152602001908152602001600020614f88565b6149d0606860008473ffffffffffffffffffffffffffffffffffffffff1673ffffffffffffffffffffffffffffffffffffffff168152602001908152602001600020614e69565b816066600083815260200190815260200160002060006101000a81548173ffffffffffffffffffffffffffffffffffffffff021916908373ffffffffffffffffffffffffffffffffffffffff160217905550808273ffffffffffffffffffffffffffffffffffffffff168473ffffffffffffffffffffffffffffffffffffffff167fddf252ad1be2c89b69c2b068fc378daa952ba7f163c4a11628f55a4df523b3ef60405160405180910390a4505050565b6000614ada6001609c60008673ffffffffffffffffffffffffffffffffffffffff1673ffffffffffffffffffffffffffffffffffffffff1681526020019081526020016000208054905061374290919063ffffffff16565b90506000609d6000848152602001908152602001600020549050818114614bc7576000609c60008673ffffffffffffffffffffffffffffffffffffffff1673ffffffffffffffffffffffffffffffffffffffff1681526020019081526020016000208381548110614b4757fe5b9060005260206000200154905080609c60008773ffffffffffffffffffffffffffffffffffffffff1673ffffffffffffffffffffffffffffffffffffffff1681526020019081526020016000208381548110614b9f57fe5b906000526020600020018190555081609d600083815260200190815260200160002081905550505b609c60008573ffffffffffffffffffffffffffffffffffffffff1673ffffffffffffffffffffffffffffffffffffffff168152602001908152602001600020805480919060019003614c199190615140565b5050505050565b8173ffffffffffffffffffffffffffffffffffffffff16614c40826119f5565b73ffffffffffffffffffffffffffffffffffffffff1614614cac576040517f08c379a000000000000000000000000000000000000000000000000000000000815260040180806020018281038252602581526020018061551d6025913960400191505060405180910390fd5b614cb581614eca565b614cfc606860008473ffffffffffffffffffffffffffffffffffffffff1673ffffffffffffffffffffffffffffffffffffffff168152602001908152602001600020614f88565b60006066600083815260200190815260200160002060006101000a81548173ffffffffffffffffffffffffffffffffffffffff021916908373ffffffffffffffffffffffffffffffffffffffff16021790555080600073ffffffffffffffffffffffffffffffffffffffff168373ffffffffffffffffffffffffffffffffffffffff167fddf252ad1be2c89b69c2b068fc378daa952ba7f163c4a11628f55a4df523b3ef60405160405180910390a45050565b6000614dca6001609e8054905061374290919063ffffffff16565b90506000609f60008481526020019081526020016000205490506000609e8381548110614df357fe5b9060005260206000200154905080609e8381548110614e0e57fe5b906000526020600020018190555081609f600083815260200190815260200160002081905550609e805480919060019003614e499190615140565b506000609f60008681526020019081526020016000208190555050505050565b6001816000016000828254019250508190555050565b60008060007fc5d2460186f7233c927e7db2dcc703c0e500b653ca82273b7bfad8045d85a47060001b9050833f91506000801b8214158015614ec15750808214155b92505050919050565b600073ffffffffffffffffffffffffffffffffffffffff166067600083815260200190815260200160002060009054906101000a900473ffffffffffffffffffffffffffffffffffffffff1673ffffffffffffffffffffffffffffffffffffffff1614614f855760006067600083815260200190815260200160002060006101000a81548173ffffffffffffffffffffffffffffffffffffffff021916908373ffffffffffffffffffffffffffffffffffffffff1602179055505b50565b614fa06001826000015461374290919063ffffffff16565b816000018190555050565b828054600181600116156101000203166002900490600052602060002090601f016020900481019282601f10614fec57805160ff191683800117855561501a565b8280016001018555821561501a579182015b82811115615019578251825591602001919060010190614ffe565b5b509050615027919061516c565b5090565b828054828255906000526020600020908101928215615067579160200282015b8281111561506657823582559160200191906001019061504b565b5b509050615074919061516c565b5090565b828054600181600116156101000203166002900490600052602060002090601f016020900481019282601f106150b957803560ff19168380011785556150e7565b828001600101855582156150e7579182015b828111156150e65782358255916020019190600101906150cb565b5b5090506150f4919061516c565b5090565b50805460018160011615610100020316600290046000825580601f1061511e575061513d565b601f01602090049060005260206000209081019061513c919061516c565b5b50565b81548183558181111561516757818360005260206000209182019101615166919061516c565b5b505050565b61518e91905b8082111561518a576000816000905550600101615172565b5090565b9056fe494452544361736856313a2052686f6d627573206f7261636c6520636f6e747261637420646f6573206e6f742072657475726e20606f6b60455243373231456e756d657261626c653a206f776e657220696e646578206f7574206f6620626f756e64734552433732313a207472616e7366657220746f206e6f6e20455243373231526563656976657220696d706c656d656e746572506175736572526f6c653a2063616c6c657220646f6573206e6f742068617665207468652050617573657220726f6c6549445254436173683a20455243323020746f6b656e207472616e73666572206661696c65644552433732313a207472616e7366657220746f20746865207a65726f20616464726573734552433732313a206f70657261746f7220717565727920666f72206e6f6e6578697374656e7420746f6b656e49445254436173683a206d73672e73656e646572206973206e6f7420746865206f776e6572206f662074686520746f6b656e4552433732313a20617070726f76652063616c6c6572206973206e6f74206f776e6572206e6f7220617070726f76656420666f7220616c6c4552433732313a2062616c616e636520717565727920666f7220746865207a65726f20616464726573734552433732313a206f776e657220717565727920666f72206e6f6e6578697374656e7420746f6b656e526f6c65733a206163636f756e7420646f6573206e6f74206861766520726f6c65536166654d6174683a206d756c7469706c69636174696f6e206f766572666c6f774552433732313a20617070726f76656420717565727920666f72206e6f6e6578697374656e7420746f6b656e526f6c65733a206163636f756e7420697320746865207a65726f2061646472657373436f6e747261637420696e7374616e63652068617320616c7265616479206265656e20696e697469616c697a65644552433732313a207472616e73666572206f6620746f6b656e2074686174206973206e6f74206f776e4552433732314d657461646174613a2055524920717565727920666f72206e6f6e6578697374656e7420746f6b656e4552433732313a20617070726f76616c20746f2063757272656e74206f776e65724552433732313a207472616e736665722063616c6c6572206973206e6f74206f776e6572206e6f7220617070726f766564455243373231456e756d657261626c653a20676c6f62616c20696e646578206f7574206f6620626f756e64734552433732313a206275726e206f6620746f6b656e2074686174206973206e6f74206f776e49445254436173683a207468657265206973206e6f7420656e6f75676820616c6c6f77616e636520746f207370656e64206f6e20626568616c66206f66206d73672e73656e6465722c20706c6561736520656e61626c652074686520746f6b656e206669727374a165627a7a723058204e598bf8a3690921ecb424de8eee042d036be4de67921be2d895c5eb3fe42c5c0029",
  "source": "pragma solidity 0.5.8;\n\nimport \"../contracts/Ilighthouse.sol\";\nimport \"@openzeppelin/upgrades/contracts/Initializable.sol\";\nimport \"@openzeppelin/contracts-ethereum-package/contracts/drafts/Strings.sol\";\nimport \"@openzeppelin/contracts-ethereum-package/contracts/token/ERC721/ERC721Enumerable.sol\";\nimport \"@openzeppelin/contracts-ethereum-package/contracts/token/ERC721/ERC721Metadata.sol\";\nimport \"@openzeppelin/contracts-ethereum-package/contracts/token/ERC721/ERC721Pausable.sol\";\nimport \"@openzeppelin/contracts-ethereum-package/contracts/token/ERC20/ERC20Detailed.sol\";\n\ncontract IDRTCashV1 is Initializable, ERC721Enumerable, ERC721Metadata, ERC721Pausable {\n    // Rhombus lighthouse\n    ILighthouse public lighthouse; \n\n    // ERC20 contract address\n    ERC20Detailed public erc20;\n\n    // ERC20 decimals\n    uint internal erc20Decimals;\n\n    // Base URI\n    string internal _baseURI;\n\n    // Mapping from token ID to token _denominations\n    mapping (uint256 => uint) public tokenDenom;\n\n    // The IDRTCash _denominations is indexed by `_denominations` array\n    uint[] internal _denominations;\n    uint internal _denominations_length;\n    \n    modifier onlyOwnerOf(uint tokenId) {\n        require(_msgSender() == ownerOf(tokenId), \"IDRTCash: msg.sender is not the owner of the token\");\n        _;\n    }\n\n    modifier hasEnoughAllowance(uint amount) {\n        require(erc20.allowance(_msgSender(), address(this)) >= amount, \"IDRTCash: there is not enough allowance to spend on behalf of msg.sender, please enable the token first\");\n        _;\n    }\n\n    /**\n    * @dev Initialize contract, required by OpenZeppelin SDK Upgradable pattern\n    */\n    function initialize(uint[] calldata denoms, address erc20Address, address lighthouseAddress, string calldata baseURI) initializer external {\n        ERC721.initialize();\n        ERC721Enumerable.initialize();\n        ERC721Metadata.initialize(\"IDRTCash\", \"IDRTC\");\n        ERC721Pausable.initialize(_msgSender());\n        \n        erc20 = ERC20Detailed(erc20Address);\n        erc20Decimals = erc20.decimals();\n\n        _denominations = denoms;\n        _denominations_length = denoms.length;\n\n        lighthouse = ILighthouse(lighthouseAddress);\n        _baseURI = baseURI;\n    }\n\n    /**\n    * @dev Returns IDRTCash _denominations\n    */\n    function denominations(uint index) external view returns (uint) {\n        require(index >= 0 && index < _denominations_length);\n\n        return _denominations[index];\n    }\n\n\n    /**\n    * @dev Returns the base URI set via {_setBaseURI}. This will be\n    * automatically added as a preffix in {tokenURI} to each token's URI, when\n    * they are non-empty.\n    */\n    function baseURI() external view returns (string memory) {\n        return _baseURI;\n    }\n\n    /**\n     * @dev Returns the URI for a given token ID. May return an empty string.\n     *\n     * If the token's URI is non-empty and a base URI was set (via\n     * {_setBaseURI}), it will be added to the token ID's URI as a prefix.\n     *\n     * Reverts if the token ID does not exist.\n     */\n    function tokenURI(uint256 tokenId) external view returns (string memory) {\n        require(_exists(tokenId), \"ERC721Metadata: URI query for nonexistent token\");\n\n        // abi.encodePacked is being used to concatenate strings\n        return string(abi.encodePacked(_baseURI, Strings.fromUint256(tokenId), \".json\"));\n    }\n\n    /**\n     * @dev Caculate how many ERC721 can be made from the input amount \n     * uses Greedy algorithm.\n     * @param amount , amount to be calculated\n     */\n    function makingChange(uint amount) internal returns (uint[] memory, uint) {\n        uint[] memory result = new uint[](_denominations_length);\n        uint remainder = amount;\n\n        for (uint i = _denominations_length; i > 0; i--) {\n            while (remainder >= _denominations[i - 1]) {\n                result[i - 1]++;\n                remainder -= _denominations[i - 1];\n            }\n        }\n\n        return (result, remainder);\n    }\n\n    /**\n     * @dev Mint ERC721 tokens for a given input amount, \n     * randomize tokenId based on several parameters including Rhombus's Oracle\n     * transfer ERC20 token to the contract by total minted amount.\n     * @param amount , amount to be minted\n     */\n    function mint(uint amount) hasEnoughAllowance(amount) whenNotPaused public {\n        (uint randomNumber, bool ok) = lighthouse.peekData();\n        require(ok, \"IDRTCashV1: Rhombus oracle contract does not return `ok`\");\n\n        uint mintAmount = amount.div(10 ** erc20Decimals);\n        (uint[] memory mcArray, uint remainder) = makingChange(mintAmount);\n\n        for (uint i; i < mcArray.length; i++) {\n            while (mcArray[i] > 0) {\n                uint localNonce = mcArray[i];\n                uint denomIndex = i;\n                uint tokenId = uint(keccak256(abi.encodePacked(localNonce, denomIndex, _msgSender(), randomNumber, blockhash(block.number - 1))));\n\n                _mint(_msgSender(), tokenId);\n                tokenDenom[tokenId] = denomIndex;\n\n                mcArray[i]--;\n            }\n        }\n\n        require(erc20.transferFrom(_msgSender(), address(this), mintAmount.sub(remainder).mul(10 ** erc20Decimals)));\n    }\n\n    /**\n     * @dev Burn ERC721 token, and transfer the locked ERC20 to the token owner.\n     * @param tokenId , tokenId to be burn\n     */\n    function burn(uint tokenId) onlyOwnerOf(tokenId) whenNotPaused public {\n        _burn(_msgSender(), tokenId);\n        \n        uint transferAmount = _denominations[tokenDenom[tokenId]].mul(10 ** erc20Decimals);\n        delete tokenDenom[tokenId];\n\n        require(erc20.transfer(_msgSender(), transferAmount), \"IDRTCash: ERC20 token transfer failed\");\n    }\n\n    /**\n    * @dev Burn multiple ERC721 tokens.\n    * @param tokenIds , array of tokenId to be burn.\n    */\n    function burnBatch(uint[] memory tokenIds) whenNotPaused public {\n        for (uint i; i < tokenIds.length; i++) {\n            burn(tokenIds[i]);\n        }\n    }\n\n    /**\n    * @dev return ERC721 token owned by an address.\n    * @param owner , address of token owner\n    */\n    function getOwnedTokens(address owner) public view returns (uint[] memory) {\n        return super._tokensOfOwner(owner);\n    }\n}",
  "sourcePath": "/home/fengkiej/Documents/ConsensysAcademy/IDRTCash/smart-contracts/contracts/IDRTCashV1.sol",
  "compiler": {
    "name": "solc",
    "version": "0.5.8+commit.23d335f2.Emscripten.clang"
  },
  "schemaVersion": "3.0.20",
  "updatedAt": "2020-02-08T19:57:36.925Z",
  "devdoc": {
    "methods": {
      "balanceOf(address)": {
        "details": "Gets the balance of the specified address.",
        "params": {
          "owner": "address to query the balance of"
        },
        "return": "uint256 representing the amount owned by the passed address"
      },
      "baseURI()": {
        "details": "Returns the base URI set via {_setBaseURI}. This will be automatically added as a preffix in {tokenURI} to each token's URI, when they are non-empty."
      },
      "burn(uint256)": {
        "details": "Burn ERC721 token, and transfer the locked ERC20 to the token owner.",
        "params": {
          "tokenId": ", tokenId to be burn"
        }
      },
      "burnBatch(uint256[])": {
        "details": "Burn multiple ERC721 tokens.",
        "params": {
          "tokenIds": ", array of tokenId to be burn."
        }
      },
      "denominations(uint256)": {
        "details": "Returns IDRTCash _denominations"
      },
      "getApproved(uint256)": {
        "details": "Gets the approved address for a token ID, or zero if no address set Reverts if the token ID does not exist.",
        "params": {
          "tokenId": "uint256 ID of the token to query the approval of"
        },
        "return": "address currently approved for the given token ID"
      },
      "getOwnedTokens(address)": {
        "details": "return ERC721 token owned by an address.",
        "params": {
          "owner": ", address of token owner"
        }
      },
      "initialize()": {
        "details": "Constructor function."
      },
      "initialize(string,string)": {
        "details": "Constructor function"
      },
      "initialize(uint256[],address,address,string)": {
        "details": "Initialize contract, required by OpenZeppelin SDK Upgradable pattern"
      },
      "isApprovedForAll(address,address)": {
        "details": "Tells whether an operator is approved by a given owner.",
        "params": {
          "operator": "operator address which you want to query the approval of",
          "owner": "owner address which you want to query the approval of"
        },
        "return": "bool whether the given operator is approved by the given owner"
      },
      "mint(uint256)": {
        "details": "Mint ERC721 tokens for a given input amount,  randomize tokenId based on several parameters including Rhombus's Oracle transfer ERC20 token to the contract by total minted amount.",
        "params": {
          "amount": ", amount to be minted"
        }
      },
      "name()": {
        "details": "Gets the token name.",
        "return": "string representing the token name"
      },
      "ownerOf(uint256)": {
        "details": "Gets the owner of the specified token ID.",
        "params": {
          "tokenId": "uint256 ID of the token to query the owner of"
        },
        "return": "address currently marked as the owner of the given token ID"
      },
      "pause()": {
        "details": "Called by a pauser to pause, triggers stopped state."
      },
      "paused()": {
        "details": "Returns true if the contract is paused, and false otherwise."
      },
      "safeTransferFrom(address,address,uint256)": {
        "details": "Safely transfers the ownership of a given token ID to another address If the target address is a contract, it must implement {IERC721Receiver-onERC721Received}, which is called upon a safe transfer, and return the magic value `bytes4(keccak256(\"onERC721Received(address,address,uint256,bytes)\"))`; otherwise, the transfer is reverted. Requires the msg.sender to be the owner, approved, or operator",
        "params": {
          "from": "current owner of the token",
          "to": "address to receive the ownership of the given token ID",
          "tokenId": "uint256 ID of the token to be transferred"
        }
      },
      "safeTransferFrom(address,address,uint256,bytes)": {
        "details": "Safely transfers the ownership of a given token ID to another address If the target address is a contract, it must implement {IERC721Receiver-onERC721Received}, which is called upon a safe transfer, and return the magic value `bytes4(keccak256(\"onERC721Received(address,address,uint256,bytes)\"))`; otherwise, the transfer is reverted. Requires the _msgSender() to be the owner, approved, or operator",
        "params": {
          "_data": "bytes data to send along with a safe transfer check",
          "from": "current owner of the token",
          "to": "address to receive the ownership of the given token ID",
          "tokenId": "uint256 ID of the token to be transferred"
        }
      },
      "supportsInterface(bytes4)": {
        "details": "See {IERC165-supportsInterface}.     * Time complexity O(1), guaranteed to always use less than 30 000 gas."
      },
      "symbol()": {
        "details": "Gets the token symbol.",
        "return": "string representing the token symbol"
      },
      "tokenByIndex(uint256)": {
        "details": "Gets the token ID at a given index of all the tokens in this contract Reverts if the index is greater or equal to the total number of tokens.",
        "params": {
          "index": "uint256 representing the index to be accessed of the tokens list"
        },
        "return": "uint256 token ID at the given index of the tokens list"
      },
      "tokenOfOwnerByIndex(address,uint256)": {
        "details": "Gets the token ID at a given index of the tokens list of the requested owner.",
        "params": {
          "index": "uint256 representing the index to be accessed of the requested tokens list",
          "owner": "address owning the tokens list to be accessed"
        },
        "return": "uint256 token ID at the given index of the tokens list owned by the requested address"
      },
      "tokenURI(uint256)": {
        "details": "Returns the URI for a given token ID. May return an empty string.     * If the token's URI is non-empty and a base URI was set (via {_setBaseURI}), it will be added to the token ID's URI as a prefix.     * Reverts if the token ID does not exist."
      },
      "totalSupply()": {
        "details": "Gets the total amount of tokens stored by the contract.",
        "return": "uint256 representing the total amount of tokens"
      },
      "transferFrom(address,address,uint256)": {
        "details": "Transfers the ownership of a given token ID to another address. Usage of this method is discouraged, use {safeTransferFrom} whenever possible. Requires the msg.sender to be the owner, approved, or operator.",
        "params": {
          "from": "current owner of the token",
          "to": "address to receive the ownership of the given token ID",
          "tokenId": "uint256 ID of the token to be transferred"
        }
      },
      "unpause()": {
        "details": "Called by a pauser to unpause, returns to normal state."
      }
    }
  },
  "userdoc": {
    "methods": {}
  }
}